{
  "_format": "hh-sol-artifact-1",
  "contractName": "BitcoinPredictionFactoryContract",
  "sourceName": "contracts/BitcoinPredictionFactoryContract.sol",
  "abi": [
    {
      "inputs": [
        {
          "internalType": "address",
          "name": "_templateAddress",
          "type": "address"
        }
      ],
      "stateMutability": "nonpayable",
      "type": "constructor"
    },
    {
      "anonymous": false,
      "inputs": [
        {
          "indexed": true,
          "internalType": "address",
          "name": "previousOwner",
          "type": "address"
        },
        {
          "indexed": true,
          "internalType": "address",
          "name": "newOwner",
          "type": "address"
        }
      ],
      "name": "OwnershipTransferred",
      "type": "event"
    },
    {
      "anonymous": false,
      "inputs": [
        {
          "indexed": true,
          "internalType": "address",
          "name": "proxy",
          "type": "address"
        }
      ],
      "name": "ProxyCreated",
      "type": "event"
    },
    {
      "inputs": [
        {
          "internalType": "uint256",
          "name": "_bettingPeriodEndsAt",
          "type": "uint256"
        },
        {
          "internalType": "uint256",
          "name": "_lockInPeriodEndsAt",
          "type": "uint256"
        },
        {
          "internalType": "uint256",
          "name": "_stakeAmount",
          "type": "uint256"
        }
      ],
      "name": "createProxy",
      "outputs": [
        {
          "internalType": "address",
          "name": "",
          "type": "address"
        }
      ],
      "stateMutability": "nonpayable",
      "type": "function"
    },
    {
      "inputs": [],
      "name": "owner",
      "outputs": [
        {
          "internalType": "address",
          "name": "",
          "type": "address"
        }
      ],
      "stateMutability": "view",
      "type": "function"
    },
    {
      "inputs": [],
      "name": "renounceOwnership",
      "outputs": [],
      "stateMutability": "nonpayable",
      "type": "function"
    },
    {
      "inputs": [],
      "name": "templateAddress",
      "outputs": [
        {
          "internalType": "address",
          "name": "",
          "type": "address"
        }
      ],
      "stateMutability": "view",
      "type": "function"
    },
    {
      "inputs": [
        {
          "internalType": "address",
          "name": "newOwner",
          "type": "address"
        }
      ],
      "name": "transferOwnership",
      "outputs": [],
      "stateMutability": "nonpayable",
      "type": "function"
    },
    {
      "inputs": [
        {
          "internalType": "address",
          "name": "_newTemplateAddress",
          "type": "address"
        }
      ],
      "name": "updateTemplateAddress",
      "outputs": [],
      "stateMutability": "nonpayable",
      "type": "function"
    }
  ],
  "bytecode": "0x608060405234801561001057600080fd5b50604051610a87380380610a87833981810160405281019061003291906101c4565b61004e61004361009560201b60201c565b61009d60201b60201c565b80600160006101000a81548173ffffffffffffffffffffffffffffffffffffffff021916908373ffffffffffffffffffffffffffffffffffffffff160217905550506101f1565b600033905090565b60008060009054906101000a900473ffffffffffffffffffffffffffffffffffffffff169050816000806101000a81548173ffffffffffffffffffffffffffffffffffffffff021916908373ffffffffffffffffffffffffffffffffffffffff1602179055508173ffffffffffffffffffffffffffffffffffffffff168173ffffffffffffffffffffffffffffffffffffffff167f8be0079c531659141344cd1fd0a4f28419497f9722a3daafe3b4186f6b6457e060405160405180910390a35050565b600080fd5b600073ffffffffffffffffffffffffffffffffffffffff82169050919050565b600061019182610166565b9050919050565b6101a181610186565b81146101ac57600080fd5b50565b6000815190506101be81610198565b92915050565b6000602082840312156101da576101d9610161565b5b60006101e8848285016101af565b91505092915050565b610887806102006000396000f3fe608060405234801561001057600080fd5b50600436106100625760003560e01c80630c5a6f2f14610067578063715018a6146100855780638da5cb5b1461008f578063a4bfac5f146100ad578063f2fde38b146100dd578063fb37744f146100f9575b600080fd5b61006f610115565b60405161007c919061058e565b60405180910390f35b61008d61013b565b005b61009761014f565b6040516100a4919061058e565b60405180910390f35b6100c760048036038101906100c291906105e4565b610178565b6040516100d4919061058e565b60405180910390f35b6100f760048036038101906100f29190610663565b61027a565b005b610113600480360381019061010e9190610663565b6102fd565b005b600160009054906101000a900473ffffffffffffffffffffffffffffffffffffffff1681565b610143610349565b61014d60006103c7565b565b60008060009054906101000a900473ffffffffffffffffffffffffffffffffffffffff16905090565b6000806101bc600160009054906101000a900473ffffffffffffffffffffffffffffffffffffffff1673ffffffffffffffffffffffffffffffffffffffff1661048b565b90508073ffffffffffffffffffffffffffffffffffffffff166380d859118686866040518463ffffffff1660e01b81526004016101fb9392919061069f565b600060405180830381600087803b15801561021557600080fd5b505af1158015610229573d6000803e3d6000fd5b505050508073ffffffffffffffffffffffffffffffffffffffff167efffc2da0b561cae30d9826d37709e9421c4725faebc226cbbb7ef5fc5e734960405160405180910390a2809150509392505050565b610282610349565b600073ffffffffffffffffffffffffffffffffffffffff168173ffffffffffffffffffffffffffffffffffffffff16036102f1576040517f08c379a00000000000000000000000000000000000000000000000000000000081526004016102e890610759565b60405180910390fd5b6102fa816103c7565b50565b610305610349565b80600160006101000a81548173ffffffffffffffffffffffffffffffffffffffff021916908373ffffffffffffffffffffffffffffffffffffffff16021790555050565b610351610545565b73ffffffffffffffffffffffffffffffffffffffff1661036f61014f565b73ffffffffffffffffffffffffffffffffffffffff16146103c5576040517f08c379a00000000000000000000000000000000000000000000000000000000081526004016103bc906107c5565b60405180910390fd5b565b60008060009054906101000a900473ffffffffffffffffffffffffffffffffffffffff169050816000806101000a81548173ffffffffffffffffffffffffffffffffffffffff021916908373ffffffffffffffffffffffffffffffffffffffff1602179055508173ffffffffffffffffffffffffffffffffffffffff168173ffffffffffffffffffffffffffffffffffffffff167f8be0079c531659141344cd1fd0a4f28419497f9722a3daafe3b4186f6b6457e060405160405180910390a35050565b6000763d602d80600a3d3981f3363d3d373d3d3d363d730000008260601b60e81c176000526e5af43d82803e903d91602b57fd5bf38260781b17602052603760096000f09050600073ffffffffffffffffffffffffffffffffffffffff168173ffffffffffffffffffffffffffffffffffffffff1603610540576040517f08c379a000000000000000000000000000000000000000000000000000000000815260040161053790610831565b60405180910390fd5b919050565b600033905090565b600073ffffffffffffffffffffffffffffffffffffffff82169050919050565b60006105788261054d565b9050919050565b6105888161056d565b82525050565b60006020820190506105a3600083018461057f565b92915050565b600080fd5b6000819050919050565b6105c1816105ae565b81146105cc57600080fd5b50565b6000813590506105de816105b8565b92915050565b6000806000606084860312156105fd576105fc6105a9565b5b600061060b868287016105cf565b935050602061061c868287016105cf565b925050604061062d868287016105cf565b9150509250925092565b6106408161056d565b811461064b57600080fd5b50565b60008135905061065d81610637565b92915050565b600060208284031215610679576106786105a9565b5b60006106878482850161064e565b91505092915050565b610699816105ae565b82525050565b60006060820190506106b46000830186610690565b6106c16020830185610690565b6106ce6040830184610690565b949350505050565b600082825260208201905092915050565b7f4f776e61626c653a206e6577206f776e657220697320746865207a65726f206160008201527f6464726573730000000000000000000000000000000000000000000000000000602082015250565b60006107436026836106d6565b915061074e826106e7565b604082019050919050565b6000602082019050818103600083015261077281610736565b9050919050565b7f4f776e61626c653a2063616c6c6572206973206e6f7420746865206f776e6572600082015250565b60006107af6020836106d6565b91506107ba82610779565b602082019050919050565b600060208201905081810360008301526107de816107a2565b9050919050565b7f455243313136373a20637265617465206661696c656400000000000000000000600082015250565b600061081b6016836106d6565b9150610826826107e5565b602082019050919050565b6000602082019050818103600083015261084a8161080e565b905091905056fea2646970667358221220aeec25daeb63ebf06886037cd74cd684f1e8fcc514ebd651687f93e5d85d457c64736f6c63430008120033",
  "linkReferences": {},
  "deployedLinkReferences": {}
}