{
  "_format": "hh-sol-artifact-1",
  "contractName": "BitcoinPredictionFactoryContract",
  "sourceName": "contracts/BitcoinPredictionFactoryContract.sol",
  "abi": [
    {
      "inputs": [
        {
          "internalType": "address",
          "name": "_BTC_USD_FEED_ADDRESS",
          "type": "address"
        },
        {
          "internalType": "address",
          "name": "_LENDING_POOL_PROVIDER_ADDRESS",
          "type": "address"
        },
        {
          "internalType": "address",
          "name": "_AAVE_V2_ADDRESS",
          "type": "address"
        },
        {
          "internalType": "address",
          "name": "_AAVE_ATOKEN_ADDRESS",
          "type": "address"
        }
      ],
      "stateMutability": "nonpayable",
      "type": "constructor"
    },
    {
      "anonymous": false,
      "inputs": [
        {
          "indexed": true,
          "internalType": "address",
          "name": "previousOwner",
          "type": "address"
        },
        {
          "indexed": true,
          "internalType": "address",
          "name": "newOwner",
          "type": "address"
        }
      ],
      "name": "OwnershipTransferred",
      "type": "event"
    },
    {
      "anonymous": false,
      "inputs": [
        {
          "indexed": true,
          "internalType": "address",
          "name": "proxy",
          "type": "address"
        }
      ],
      "name": "ProxyCreated",
      "type": "event"
    },
    {
      "inputs": [
        {
          "internalType": "uint256",
          "name": "_bettingPeriodEndsAt",
          "type": "uint256"
        },
        {
          "internalType": "uint256",
          "name": "_lockInPeriodEndsAt",
          "type": "uint256"
        },
        {
          "internalType": "uint256",
          "name": "_stakeAmount",
          "type": "uint256"
        }
      ],
      "name": "createProxy",
      "outputs": [
        {
          "internalType": "address",
          "name": "",
          "type": "address"
        }
      ],
      "stateMutability": "nonpayable",
      "type": "function"
    },
    {
      "inputs": [],
      "name": "owner",
      "outputs": [
        {
          "internalType": "address",
          "name": "",
          "type": "address"
        }
      ],
      "stateMutability": "view",
      "type": "function"
    },
    {
      "inputs": [],
      "name": "renounceOwnership",
      "outputs": [],
      "stateMutability": "nonpayable",
      "type": "function"
    },
    {
      "inputs": [],
      "name": "templateAddress",
      "outputs": [
        {
          "internalType": "address",
          "name": "",
          "type": "address"
        }
      ],
      "stateMutability": "view",
      "type": "function"
    },
    {
      "inputs": [
        {
          "internalType": "address",
          "name": "newOwner",
          "type": "address"
        }
      ],
      "name": "transferOwnership",
      "outputs": [],
      "stateMutability": "nonpayable",
      "type": "function"
    },
    {
      "inputs": [
        {
          "internalType": "address",
          "name": "_newTemplateAddress",
          "type": "address"
        }
      ],
      "name": "updateTemplateAddress",
      "outputs": [],
      "stateMutability": "nonpayable",
      "type": "function"
    }
  ],
  "bytecode": "0x6101006040523480156200001257600080fd5b5060405162005c3038038062005c30833981810160405281019062000038919062000315565b620000586200004c6200014260201b60201c565b6200014a60201b60201c565b8373ffffffffffffffffffffffffffffffffffffffff1660808173ffffffffffffffffffffffffffffffffffffffff16815250508173ffffffffffffffffffffffffffffffffffffffff1660a08173ffffffffffffffffffffffffffffffffffffffff16815250508073ffffffffffffffffffffffffffffffffffffffff1660c08173ffffffffffffffffffffffffffffffffffffffff16815250508273ffffffffffffffffffffffffffffffffffffffff1660e08173ffffffffffffffffffffffffffffffffffffffff1681525050620001386200020e60201b60201c565b50505050620003e5565b600033905090565b60008060009054906101000a900473ffffffffffffffffffffffffffffffffffffffff169050816000806101000a81548173ffffffffffffffffffffffffffffffffffffffff021916908373ffffffffffffffffffffffffffffffffffffffff1602179055508173ffffffffffffffffffffffffffffffffffffffff168173ffffffffffffffffffffffffffffffffffffffff167f8be0079c531659141344cd1fd0a4f28419497f9722a3daafe3b4186f6b6457e060405160405180910390a35050565b600060805160a05160c05160e0516040516200022a906200029d565b62000239949392919062000398565b604051809103906000f08015801562000256573d6000803e3d6000fd5b50905080600160006101000a81548173ffffffffffffffffffffffffffffffffffffffff021916908373ffffffffffffffffffffffffffffffffffffffff16021790555050565b614f968062000c9a83390190565b600080fd5b600073ffffffffffffffffffffffffffffffffffffffff82169050919050565b6000620002dd82620002b0565b9050919050565b620002ef81620002d0565b8114620002fb57600080fd5b50565b6000815190506200030f81620002e4565b92915050565b60008060008060808587031215620003325762000331620002ab565b5b60006200034287828801620002fe565b94505060206200035587828801620002fe565b93505060406200036887828801620002fe565b92505060606200037b87828801620002fe565b91505092959194509250565b6200039281620002d0565b82525050565b6000608082019050620003af600083018762000387565b620003be602083018662000387565b620003cd604083018562000387565b620003dc606083018462000387565b95945050505050565b60805160a05160c05160e05161088762000413600039600050506000505060005050600050506108876000f3fe608060405234801561001057600080fd5b50600436106100625760003560e01c80630c5a6f2f14610067578063715018a6146100855780638da5cb5b1461008f578063a4bfac5f146100ad578063f2fde38b146100dd578063fb37744f146100f9575b600080fd5b61006f610115565b60405161007c919061058e565b60405180910390f35b61008d61013b565b005b61009761014f565b6040516100a4919061058e565b60405180910390f35b6100c760048036038101906100c291906105e4565b610178565b6040516100d4919061058e565b60405180910390f35b6100f760048036038101906100f29190610663565b61027a565b005b610113600480360381019061010e9190610663565b6102fd565b005b600160009054906101000a900473ffffffffffffffffffffffffffffffffffffffff1681565b610143610349565b61014d60006103c7565b565b60008060009054906101000a900473ffffffffffffffffffffffffffffffffffffffff16905090565b6000806101bc600160009054906101000a900473ffffffffffffffffffffffffffffffffffffffff1673ffffffffffffffffffffffffffffffffffffffff1661048b565b90508073ffffffffffffffffffffffffffffffffffffffff166380d859118686866040518463ffffffff1660e01b81526004016101fb9392919061069f565b600060405180830381600087803b15801561021557600080fd5b505af1158015610229573d6000803e3d6000fd5b505050508073ffffffffffffffffffffffffffffffffffffffff167efffc2da0b561cae30d9826d37709e9421c4725faebc226cbbb7ef5fc5e734960405160405180910390a2809150509392505050565b610282610349565b600073ffffffffffffffffffffffffffffffffffffffff168173ffffffffffffffffffffffffffffffffffffffff16036102f1576040517f08c379a00000000000000000000000000000000000000000000000000000000081526004016102e890610759565b60405180910390fd5b6102fa816103c7565b50565b610305610349565b80600160006101000a81548173ffffffffffffffffffffffffffffffffffffffff021916908373ffffffffffffffffffffffffffffffffffffffff16021790555050565b610351610545565b73ffffffffffffffffffffffffffffffffffffffff1661036f61014f565b73ffffffffffffffffffffffffffffffffffffffff16146103c5576040517f08c379a00000000000000000000000000000000000000000000000000000000081526004016103bc906107c5565b60405180910390fd5b565b60008060009054906101000a900473ffffffffffffffffffffffffffffffffffffffff169050816000806101000a81548173ffffffffffffffffffffffffffffffffffffffff021916908373ffffffffffffffffffffffffffffffffffffffff1602179055508173ffffffffffffffffffffffffffffffffffffffff168173ffffffffffffffffffffffffffffffffffffffff167f8be0079c531659141344cd1fd0a4f28419497f9722a3daafe3b4186f6b6457e060405160405180910390a35050565b6000763d602d80600a3d3981f3363d3d373d3d3d363d730000008260601b60e81c176000526e5af43d82803e903d91602b57fd5bf38260781b17602052603760096000f09050600073ffffffffffffffffffffffffffffffffffffffff168173ffffffffffffffffffffffffffffffffffffffff1603610540576040517f08c379a000000000000000000000000000000000000000000000000000000000815260040161053790610831565b60405180910390fd5b919050565b600033905090565b600073ffffffffffffffffffffffffffffffffffffffff82169050919050565b60006105788261054d565b9050919050565b6105888161056d565b82525050565b60006020820190506105a3600083018461057f565b92915050565b600080fd5b6000819050919050565b6105c1816105ae565b81146105cc57600080fd5b50565b6000813590506105de816105b8565b92915050565b6000806000606084860312156105fd576105fc6105a9565b5b600061060b868287016105cf565b935050602061061c868287016105cf565b925050604061062d868287016105cf565b9150509250925092565b6106408161056d565b811461064b57600080fd5b50565b60008135905061065d81610637565b92915050565b600060208284031215610679576106786105a9565b5b60006106878482850161064e565b91505092915050565b610699816105ae565b82525050565b60006060820190506106b46000830186610690565b6106c16020830185610690565b6106ce6040830184610690565b949350505050565b600082825260208201905092915050565b7f4f776e61626c653a206e6577206f776e657220697320746865207a65726f206160008201527f6464726573730000000000000000000000000000000000000000000000000000602082015250565b60006107436026836106d6565b915061074e826106e7565b604082019050919050565b6000602082019050818103600083015261077281610736565b9050919050565b7f4f776e61626c653a2063616c6c6572206973206e6f7420746865206f776e6572600082015250565b60006107af6020836106d6565b91506107ba82610779565b602082019050919050565b600060208201905081810360008301526107de816107a2565b9050919050565b7f455243313136373a20637265617465206661696c656400000000000000000000600082015250565b600061081b6016836106d6565b9150610826826107e5565b602082019050919050565b6000602082019050818103600083015261084a8161080e565b905091905056fea26469706673582212206f485804ecb1bc5336801d4baf9a332a63c0c7fe6b76bd5b140d6f311ebd4e0b64736f6c634300081200336101206040523480156200001257600080fd5b5060405162004f9638038062004f968339818101604052810190620000389190620003bb565b6040518060400160405280600481526020017f4b697465000000000000000000000000000000000000000000000000000000008152506040518060400160405280600481526020017f4b495445000000000000000000000000000000000000000000000000000000008152508160009081620000b59190620006a7565b508060019081620000c79190620006a7565b505050620000ea620000de6200020860201b60201c565b6200021060201b60201c565b8373ffffffffffffffffffffffffffffffffffffffff1660808173ffffffffffffffffffffffffffffffffffffffff16815250508273ffffffffffffffffffffffffffffffffffffffff1660a08173ffffffffffffffffffffffffffffffffffffffff16815250508173ffffffffffffffffffffffffffffffffffffffff1660c08173ffffffffffffffffffffffffffffffffffffffff16815250508073ffffffffffffffffffffffffffffffffffffffff1660e08173ffffffffffffffffffffffffffffffffffffffff1681525050620001ca620002d660201b60201c565b73ffffffffffffffffffffffffffffffffffffffff166101008173ffffffffffffffffffffffffffffffffffffffff168152505050505050620007c0565b600033905090565b6000600a60009054906101000a900473ffffffffffffffffffffffffffffffffffffffff16905081600a60006101000a81548173ffffffffffffffffffffffffffffffffffffffff021916908373ffffffffffffffffffffffffffffffffffffffff1602179055508173ffffffffffffffffffffffffffffffffffffffff168173ffffffffffffffffffffffffffffffffffffffff167f8be0079c531659141344cd1fd0a4f28419497f9722a3daafe3b4186f6b6457e060405160405180910390a35050565b600060e05173ffffffffffffffffffffffffffffffffffffffff16630261bf8b6040518163ffffffff1660e01b8152600401602060405180830381865afa15801562000326573d6000803e3d6000fd5b505050506040513d601f19601f820116820180604052508101906200034c91906200078e565b905090565b600080fd5b600073ffffffffffffffffffffffffffffffffffffffff82169050919050565b6000620003838262000356565b9050919050565b620003958162000376565b8114620003a157600080fd5b50565b600081519050620003b5816200038a565b92915050565b60008060008060808587031215620003d857620003d762000351565b5b6000620003e887828801620003a4565b9450506020620003fb87828801620003a4565b93505060406200040e87828801620003a4565b92505060606200042187828801620003a4565b91505092959194509250565b600081519050919050565b7f4e487b7100000000000000000000000000000000000000000000000000000000600052604160045260246000fd5b7f4e487b7100000000000000000000000000000000000000000000000000000000600052602260045260246000fd5b60006002820490506001821680620004af57607f821691505b602082108103620004c557620004c462000467565b5b50919050565b60008190508160005260206000209050919050565b60006020601f8301049050919050565b600082821b905092915050565b6000600883026200052f7fffffffffffffffffffffffffffffffffffffffffffffffffffffffffffffffff82620004f0565b6200053b8683620004f0565b95508019841693508086168417925050509392505050565b6000819050919050565b6000819050919050565b600062000588620005826200057c8462000553565b6200055d565b62000553565b9050919050565b6000819050919050565b620005a48362000567565b620005bc620005b3826200058f565b848454620004fd565b825550505050565b600090565b620005d3620005c4565b620005e081848462000599565b505050565b5b818110156200060857620005fc600082620005c9565b600181019050620005e6565b5050565b601f82111562000657576200062181620004cb565b6200062c84620004e0565b810160208510156200063c578190505b620006546200064b85620004e0565b830182620005e5565b50505b505050565b600082821c905092915050565b60006200067c600019846008026200065c565b1980831691505092915050565b600062000697838362000669565b9150826002028217905092915050565b620006b2826200042d565b67ffffffffffffffff811115620006ce57620006cd62000438565b5b620006da825462000496565b620006e78282856200060c565b600060209050601f8311600181146200071f57600084156200070a578287015190505b62000716858262000689565b86555062000786565b601f1984166200072f86620004cb565b60005b82811015620007595784890151825560018201915060208501945060208101905062000732565b8683101562000779578489015162000775601f89168262000669565b8355505b6001600288020188555050505b505050505050565b600060208284031215620007a757620007a662000351565b5b6000620007b784828501620003a4565b91505092915050565b60805160a05160c05160e051610100516147786200081e600039600081816109c30152610bb801526000505060008181611098015261184801526000818161098601528181610b7c01526110d4015260006111da01526147786000f3fe6080604052600436106101a05760003560e01c806370a08231116100ec578063a22cb4651161008a578063c87b56dd11610064578063c87b56dd146105c5578063e985e9c514610602578063f2fde38b1461063f578063f9686e6714610668576101a7565b8063a22cb46514610548578063b16d2fd114610571578063b88d4fde1461059c576101a7565b80638300df49116100c65780638300df491461049b5780638da5cb5b146104c65780638e71decb146104f157806395d89b411461051d576101a7565b806370a082311461041e578063715018a61461045b57806380d8591114610472576101a7565b806318160ddd1161015957806342842e0e1161013357806342842e0e146103505780634f6ccce71461037957806356189236146103b65780636352211e146103e1576101a7565b806318160ddd146102bf57806323b872dd146102ea5780632f745c5914610313576101a7565b806301ffc9a7146101ac57806306fdde03146101e9578063081812fc14610214578063095ea7b31461025157806310fe7c481461027a578063155dd5ee14610296576101a7565b366101a757005b600080fd5b3480156101b857600080fd5b506101d360048036038101906101ce9190612ed4565b610693565b6040516101e09190612f1c565b60405180910390f35b3480156101f557600080fd5b506101fe6106a5565b60405161020b9190612fc7565b60405180910390f35b34801561022057600080fd5b5061023b6004803603810190610236919061301f565b610737565b604051610248919061308d565b60405180910390f35b34801561025d57600080fd5b50610278600480360381019061027391906130d4565b61077d565b005b610294600480360381019061028f919061301f565b610894565b005b3480156102a257600080fd5b506102bd60048036038101906102b8919061301f565b610a88565b005b3480156102cb57600080fd5b506102d4610c9c565b6040516102e19190613123565b60405180910390f35b3480156102f657600080fd5b50610311600480360381019061030c919061313e565b610ca9565b005b34801561031f57600080fd5b5061033a600480360381019061033591906130d4565b610d09565b6040516103479190613123565b60405180910390f35b34801561035c57600080fd5b506103776004803603810190610372919061313e565b610dae565b005b34801561038557600080fd5b506103a0600480360381019061039b919061301f565b610dce565b6040516103ad9190613123565b60405180910390f35b3480156103c257600080fd5b506103cb610e3f565b6040516103d89190613123565b60405180910390f35b3480156103ed57600080fd5b506104086004803603810190610403919061301f565b610e50565b604051610415919061308d565b60405180910390f35b34801561042a57600080fd5b5061044560048036038101906104409190613191565b610ed6565b6040516104529190613123565b60405180910390f35b34801561046757600080fd5b50610470610f8d565b005b34801561047e57600080fd5b50610499600480360381019061049491906131be565b610fa1565b005b3480156104a757600080fd5b506104b06111d5565b6040516104bd919061322a565b60405180910390f35b3480156104d257600080fd5b506104db611274565b6040516104e8919061308d565b60405180910390f35b3480156104fd57600080fd5b5061050661129e565b604051610514929190613245565b60405180910390f35b34801561052957600080fd5b506105326113fc565b60405161053f9190612fc7565b60405180910390f35b34801561055457600080fd5b5061056f600480360381019061056a919061329a565b61148e565b005b34801561057d57600080fd5b506105866114a4565b6040516105939190613123565b60405180910390f35b3480156105a857600080fd5b506105c360048036038101906105be919061340f565b6114aa565b005b3480156105d157600080fd5b506105ec60048036038101906105e7919061301f565b61150c565b6040516105f99190612fc7565b60405180910390f35b34801561060e57600080fd5b5061062960048036038101906106249190613492565b611574565b6040516106369190612f1c565b60405180910390f35b34801561064b57600080fd5b5061066660048036038101906106619190613191565b611608565b005b34801561067457600080fd5b5061067d61168b565b60405161068a9190613123565b60405180910390f35b600061069e82611691565b9050919050565b6060600080546106b490613501565b80601f01602080910402602001604051908101604052809291908181526020018280546106e090613501565b801561072d5780601f106107025761010080835404028352916020019161072d565b820191906000526020600020905b81548152906001019060200180831161071057829003601f168201915b5050505050905090565b60006107428261170b565b6004600083815260200190815260200160002060009054906101000a900473ffffffffffffffffffffffffffffffffffffffff169050919050565b600061078882610e50565b90508073ffffffffffffffffffffffffffffffffffffffff168373ffffffffffffffffffffffffffffffffffffffff16036107f8576040517f08c379a00000000000000000000000000000000000000000000000000000000081526004016107ef906135a4565b60405180910390fd5b8073ffffffffffffffffffffffffffffffffffffffff16610817611756565b73ffffffffffffffffffffffffffffffffffffffff161480610846575061084581610840611756565b611574565b5b610885576040517f08c379a000000000000000000000000000000000000000000000000000000000815260040161087c90613636565b60405180910390fd5b61088f838361175e565b505050565b600d5442106108d8576040517f08c379a00000000000000000000000000000000000000000000000000000000081526004016108cf906136a2565b60405180910390fd5b6000811161091b576040517f08c379a00000000000000000000000000000000000000000000000000000000081526004016109129061370e565b60405180910390fd5b600f54341461095f576040517f08c379a00000000000000000000000000000000000000000000000000000000081526004016109569061377a565b60405180910390fd5b600061096a33611817565b90508160126000838152602001908152602001600020819055507f000000000000000000000000000000000000000000000000000000000000000073ffffffffffffffffffffffffffffffffffffffff1663474cf53d347f00000000000000000000000000000000000000000000000000000000000000003060006040518563ffffffff1660e01b8152600401610a03939291906137ed565b6000604051808303818588803b158015610a1c57600080fd5b505af1158015610a30573d6000803e3d6000fd5b50505050503373ffffffffffffffffffffffffffffffffffffffff167e1ecf1d0c4d22f324b3ecb9cdf0e5f772bc74ac104e6626f4b3845433d031058383604051610a7c929190613245565b60405180910390a25050565b600d54421080610a995750600e5442115b610ad8576040517f08c379a0000000000000000000000000000000000000000000000000000000008152600401610acf90613896565b60405180910390fd5b3373ffffffffffffffffffffffffffffffffffffffff16610af882610e50565b73ffffffffffffffffffffffffffffffffffffffff1614610b4e576040517f08c379a0000000000000000000000000000000000000000000000000000000008152600401610b4590613928565b60405180910390fd5b6000600f5490506010548203610b7a576000610b68611843565b90508082610b769190613977565b9150505b7f000000000000000000000000000000000000000000000000000000000000000073ffffffffffffffffffffffffffffffffffffffff166380500d207f000000000000000000000000000000000000000000000000000000000000000083306040518463ffffffff1660e01b8152600401610bf7939291906139ab565b600060405180830381600087803b158015610c1157600080fd5b505af1158015610c25573d6000803e3d6000fd5b50505050610c328261192f565b6000601260008481526020019081526020016000208190555060003390508073ffffffffffffffffffffffffffffffffffffffff166108fc839081150290604051600060405180830381858888f19350505050158015610c96573d6000803e3d6000fd5b50505050565b6000600880549050905090565b610cba610cb4611756565b82611a7d565b610cf9576040517f08c379a0000000000000000000000000000000000000000000000000000000008152600401610cf090613a54565b60405180910390fd5b610d04838383611b12565b505050565b6000610d1483610ed6565b8210610d55576040517f08c379a0000000000000000000000000000000000000000000000000000000008152600401610d4c90613ae6565b60405180910390fd5b600660008473ffffffffffffffffffffffffffffffffffffffff1673ffffffffffffffffffffffffffffffffffffffff168152602001908152602001600020600083815260200190815260200160002054905092915050565b610dc9838383604051806020016040528060008152506114aa565b505050565b6000610dd8610c9c565b8210610e19576040517f08c379a0000000000000000000000000000000000000000000000000000000008152600401610e1090613b78565b60405180910390fd5b60088281548110610e2d57610e2c613b98565b5b90600052602060002001549050919050565b6000610e4b600b611e0b565b905090565b600080610e5c83611e19565b9050600073ffffffffffffffffffffffffffffffffffffffff168173ffffffffffffffffffffffffffffffffffffffff1603610ecd576040517f08c379a0000000000000000000000000000000000000000000000000000000008152600401610ec490613c13565b60405180910390fd5b80915050919050565b60008073ffffffffffffffffffffffffffffffffffffffff168273ffffffffffffffffffffffffffffffffffffffff1603610f46576040517f08c379a0000000000000000000000000000000000000000000000000000000008152600401610f3d90613ca5565b60405180910390fd5b600360008373ffffffffffffffffffffffffffffffffffffffff1673ffffffffffffffffffffffffffffffffffffffff168152602001908152602001600020549050919050565b610f95611e56565b610f9f6000611ed4565b565b6000600c60019054906101000a900460ff16159050808015610fd557506001600c60009054906101000a900460ff1660ff16105b806110045750610fe430611f9a565b15801561100357506001600c60009054906101000a900460ff1660ff16145b5b611043576040517f08c379a000000000000000000000000000000000000000000000000000000000815260040161103a90613d37565b60405180910390fd5b6001600c60006101000a81548160ff021916908360ff1602179055508015611081576001600c60016101000a81548160ff0219169083151502179055505b83600d8190555082600e8190555081600f819055507f000000000000000000000000000000000000000000000000000000000000000073ffffffffffffffffffffffffffffffffffffffff1663095ea7b37f00000000000000000000000000000000000000000000000000000000000000007fffffffffffffffffffffffffffffffffffffffffffffffffffffffffffffffff6040518363ffffffff1660e01b8152600401611131929190613d57565b6020604051808303816000875af1158015611150573d6000803e3d6000fd5b505050506040513d601f19601f820116820180604052508101906111749190613d95565b5080156111cf576000600c60016101000a81548160ff0219169083151502179055507f7f26b83ff96e1f2b6a682f133852f6798a09c465da95921460cefb384740249860016040516111c69190613e0a565b60405180910390a15b50505050565b6000807f000000000000000000000000000000000000000000000000000000000000000073ffffffffffffffffffffffffffffffffffffffff1663feaf968c6040518163ffffffff1660e01b815260040160a060405180830381865afa158015611243573d6000803e3d6000fd5b505050506040513d601f19601f820116820180604052508101906112679190613ea8565b5050509150508091505090565b6000600a60009054906101000a900473ffffffffffffffffffffffffffffffffffffffff16905090565b600080600e5442116112e5576040517f08c379a00000000000000000000000000000000000000000000000000000000081526004016112dc90613f6f565b60405180910390fd5b60006112ef610e3f565b905060008111611334576040517f08c379a000000000000000000000000000000000000000000000000000000000815260040161132b90613fdb565b60405180910390fd5b60006113546305f5e1006113466111d5565b611fbd90919063ffffffff16565b90506000806000611378601260008081526020019081526020016000205485611fd3565b90506000600190505b8581116113de57600060126000838152602001908152602001600020549050600081146113ca5760006113b48288611fd3565b9050838110156113c8578093508195508294505b505b5080806113d690613ffb565b915050611381565b50816010819055508260118190555081839650965050505050509091565b60606001805461140b90613501565b80601f016020809104026020016040519081016040528092919081815260200182805461143790613501565b80156114845780601f1061145957610100808354040283529160200191611484565b820191906000526020600020905b81548152906001019060200180831161146757829003601f168201915b5050505050905090565b6114a0611499611756565b8383612010565b5050565b60105481565b6114bb6114b5611756565b83611a7d565b6114fa576040517f08c379a00000000000000000000000000000000000000000000000000000000081526004016114f190613a54565b60405180910390fd5b6115068484848461217c565b50505050565b60606115178261170b565b60006115216121d8565b90506000815111611541576040518060200160405280600081525061156c565b8061154b846121ef565b60405160200161155c92919061407f565b6040516020818303038152906040525b915050919050565b6000600560008473ffffffffffffffffffffffffffffffffffffffff1673ffffffffffffffffffffffffffffffffffffffff16815260200190815260200160002060008373ffffffffffffffffffffffffffffffffffffffff1673ffffffffffffffffffffffffffffffffffffffff16815260200190815260200160002060009054906101000a900460ff16905092915050565b611610611e56565b600073ffffffffffffffffffffffffffffffffffffffff168173ffffffffffffffffffffffffffffffffffffffff160361167f576040517f08c379a000000000000000000000000000000000000000000000000000000000815260040161167690614115565b60405180910390fd5b61168881611ed4565b50565b60115481565b60007f780e9d63000000000000000000000000000000000000000000000000000000007bffffffffffffffffffffffffffffffffffffffffffffffffffffffff1916827bffffffffffffffffffffffffffffffffffffffffffffffffffffffff191614806117045750611703826122bd565b5b9050919050565b6117148161239f565b611753576040517f08c379a000000000000000000000000000000000000000000000000000000000815260040161174a90613c13565b60405180910390fd5b50565b600033905090565b816004600083815260200190815260200160002060006101000a81548173ffffffffffffffffffffffffffffffffffffffff021916908373ffffffffffffffffffffffffffffffffffffffff160217905550808273ffffffffffffffffffffffffffffffffffffffff166117d183610e50565b73ffffffffffffffffffffffffffffffffffffffff167f8c5be1e5ebec7d5bd14f71427d1e84f3dd0314c0f7b2291e5b200ac8c7c3b92560405160405180910390a45050565b600080611824600b611e0b565b9050611830600b6123e0565b61183a83826123f6565b80915050919050565b6000807f000000000000000000000000000000000000000000000000000000000000000073ffffffffffffffffffffffffffffffffffffffff166370a08231306040518263ffffffff1660e01b815260040161189f919061308d565b602060405180830381865afa1580156118bc573d6000803e3d6000fd5b505050506040513d601f19601f820116820180604052508101906118e09190614135565b905060006118ec610c9c565b90506000600f54826118fe9190614162565b905080831015611914576000935050505061192c565b6000818461192291906141a4565b9050809450505050505b90565b600061193a82610e50565b905061194a816000846001612414565b61195382610e50565b90506004600083815260200190815260200160002060006101000a81549073ffffffffffffffffffffffffffffffffffffffff02191690556001600360008373ffffffffffffffffffffffffffffffffffffffff1673ffffffffffffffffffffffffffffffffffffffff168152602001908152602001600020600082825403925050819055506002600083815260200190815260200160002060006101000a81549073ffffffffffffffffffffffffffffffffffffffff021916905581600073ffffffffffffffffffffffffffffffffffffffff168273ffffffffffffffffffffffffffffffffffffffff167fddf252ad1be2c89b69c2b068fc378daa952ba7f163c4a11628f55a4df523b3ef60405160405180910390a4611a79816000846001612426565b5050565b600080611a8983610e50565b90508073ffffffffffffffffffffffffffffffffffffffff168473ffffffffffffffffffffffffffffffffffffffff161480611acb5750611aca8185611574565b5b80611b0957508373ffffffffffffffffffffffffffffffffffffffff16611af184610737565b73ffffffffffffffffffffffffffffffffffffffff16145b91505092915050565b8273ffffffffffffffffffffffffffffffffffffffff16611b3282610e50565b73ffffffffffffffffffffffffffffffffffffffff1614611b88576040517f08c379a0000000000000000000000000000000000000000000000000000000008152600401611b7f9061424a565b60405180910390fd5b600073ffffffffffffffffffffffffffffffffffffffff168273ffffffffffffffffffffffffffffffffffffffff1603611bf7576040517f08c379a0000000000000000000000000000000000000000000000000000000008152600401611bee906142dc565b60405180910390fd5b611c048383836001612414565b8273ffffffffffffffffffffffffffffffffffffffff16611c2482610e50565b73ffffffffffffffffffffffffffffffffffffffff1614611c7a576040517f08c379a0000000000000000000000000000000000000000000000000000000008152600401611c719061424a565b60405180910390fd5b6004600082815260200190815260200160002060006101000a81549073ffffffffffffffffffffffffffffffffffffffff02191690556001600360008573ffffffffffffffffffffffffffffffffffffffff1673ffffffffffffffffffffffffffffffffffffffff168152602001908152602001600020600082825403925050819055506001600360008473ffffffffffffffffffffffffffffffffffffffff1673ffffffffffffffffffffffffffffffffffffffff16815260200190815260200160002060008282540192505081905550816002600083815260200190815260200160002060006101000a81548173ffffffffffffffffffffffffffffffffffffffff021916908373ffffffffffffffffffffffffffffffffffffffff160217905550808273ffffffffffffffffffffffffffffffffffffffff168473ffffffffffffffffffffffffffffffffffffffff167fddf252ad1be2c89b69c2b068fc378daa952ba7f163c4a11628f55a4df523b3ef60405160405180910390a4611e068383836001612426565b505050565b600081600001549050919050565b60006002600083815260200190815260200160002060009054906101000a900473ffffffffffffffffffffffffffffffffffffffff169050919050565b611e5e611756565b73ffffffffffffffffffffffffffffffffffffffff16611e7c611274565b73ffffffffffffffffffffffffffffffffffffffff1614611ed2576040517f08c379a0000000000000000000000000000000000000000000000000000000008152600401611ec990614348565b60405180910390fd5b565b6000600a60009054906101000a900473ffffffffffffffffffffffffffffffffffffffff16905081600a60006101000a81548173ffffffffffffffffffffffffffffffffffffffff021916908373ffffffffffffffffffffffffffffffffffffffff1602179055508173ffffffffffffffffffffffffffffffffffffffff168173ffffffffffffffffffffffffffffffffffffffff167f8be0079c531659141344cd1fd0a4f28419497f9722a3daafe3b4186f6b6457e060405160405180910390a35050565b6000808273ffffffffffffffffffffffffffffffffffffffff163b119050919050565b60008183611fcb9190614397565b905092915050565b6000818311611ff457611fef838361242c90919063ffffffff16565b612008565b612007828461242c90919063ffffffff16565b5b905092915050565b8173ffffffffffffffffffffffffffffffffffffffff168373ffffffffffffffffffffffffffffffffffffffff160361207e576040517f08c379a000000000000000000000000000000000000000000000000000000000815260040161207590614414565b60405180910390fd5b80600560008573ffffffffffffffffffffffffffffffffffffffff1673ffffffffffffffffffffffffffffffffffffffff16815260200190815260200160002060008473ffffffffffffffffffffffffffffffffffffffff1673ffffffffffffffffffffffffffffffffffffffff16815260200190815260200160002060006101000a81548160ff0219169083151502179055508173ffffffffffffffffffffffffffffffffffffffff168373ffffffffffffffffffffffffffffffffffffffff167f17307eab39ab6107e8899845ad3d59bd9653f200f220920489ca2b5937696c318360405161216f9190612f1c565b60405180910390a3505050565b612187848484611b12565b61219384848484612442565b6121d2576040517f08c379a00000000000000000000000000000000000000000000000000000000081526004016121c9906144a6565b60405180910390fd5b50505050565b606060405180602001604052806000815250905090565b6060600060016121fe846125c9565b01905060008167ffffffffffffffff81111561221d5761221c6132e4565b5b6040519080825280601f01601f19166020018201604052801561224f5781602001600182028036833780820191505090505b509050600082602001820190505b6001156122b2578080600190039150507f3031323334353637383961626364656600000000000000000000000000000000600a86061a8153600a85816122a6576122a5614368565b5b0494506000850361225d575b819350505050919050565b60007f80ac58cd000000000000000000000000000000000000000000000000000000007bffffffffffffffffffffffffffffffffffffffffffffffffffffffff1916827bffffffffffffffffffffffffffffffffffffffffffffffffffffffff1916148061238857507f5b5e139f000000000000000000000000000000000000000000000000000000007bffffffffffffffffffffffffffffffffffffffffffffffffffffffff1916827bffffffffffffffffffffffffffffffffffffffffffffffffffffffff1916145b8061239857506123978261271c565b5b9050919050565b60008073ffffffffffffffffffffffffffffffffffffffff166123c183611e19565b73ffffffffffffffffffffffffffffffffffffffff1614159050919050565b6001816000016000828254019250508190555050565b612410828260405180602001604052806000815250612786565b5050565b612420848484846127e1565b50505050565b50505050565b6000818361243a91906141a4565b905092915050565b60006124638473ffffffffffffffffffffffffffffffffffffffff16611f9a565b156125bc578373ffffffffffffffffffffffffffffffffffffffff1663150b7a0261248c611756565b8786866040518563ffffffff1660e01b81526004016124ae949392919061451b565b6020604051808303816000875af19250505080156124ea57506040513d601f19601f820116820180604052508101906124e7919061457c565b60015b61256c573d806000811461251a576040519150601f19603f3d011682016040523d82523d6000602084013e61251f565b606091505b506000815103612564576040517f08c379a000000000000000000000000000000000000000000000000000000000815260040161255b906144a6565b60405180910390fd5b805181602001fd5b63150b7a0260e01b7bffffffffffffffffffffffffffffffffffffffffffffffffffffffff1916817bffffffffffffffffffffffffffffffffffffffffffffffffffffffff1916149150506125c1565b600190505b949350505050565b600080600090507a184f03e93ff9f4daa797ed6e38ed64bf6a1f0100000000000000008310612627577a184f03e93ff9f4daa797ed6e38ed64bf6a1f010000000000000000838161261d5761261c614368565b5b0492506040810190505b6d04ee2d6d415b85acef81000000008310612664576d04ee2d6d415b85acef8100000000838161265a57612659614368565b5b0492506020810190505b662386f26fc10000831061269357662386f26fc10000838161268957612688614368565b5b0492506010810190505b6305f5e10083106126bc576305f5e10083816126b2576126b1614368565b5b0492506008810190505b61271083106126e15761271083816126d7576126d6614368565b5b0492506004810190505b6064831061270457606483816126fa576126f9614368565b5b0492506002810190505b600a8310612713576001810190505b80915050919050565b60007f01ffc9a7000000000000000000000000000000000000000000000000000000007bffffffffffffffffffffffffffffffffffffffffffffffffffffffff1916827bffffffffffffffffffffffffffffffffffffffffffffffffffffffff1916149050919050565b612790838361293f565b61279d6000848484612442565b6127dc576040517f08c379a00000000000000000000000000000000000000000000000000000000081526004016127d3906144a6565b60405180910390fd5b505050565b6127ed84848484612b5c565b6001811115612831576040517f08c379a00000000000000000000000000000000000000000000000000000000081526004016128289061461b565b60405180910390fd5b6000829050600073ffffffffffffffffffffffffffffffffffffffff168573ffffffffffffffffffffffffffffffffffffffff16036128785761287381612b62565b6128b7565b8373ffffffffffffffffffffffffffffffffffffffff168573ffffffffffffffffffffffffffffffffffffffff16146128b6576128b58582612bab565b5b5b600073ffffffffffffffffffffffffffffffffffffffff168473ffffffffffffffffffffffffffffffffffffffff16036128f9576128f481612d18565b612938565b8473ffffffffffffffffffffffffffffffffffffffff168473ffffffffffffffffffffffffffffffffffffffff1614612937576129368482612de9565b5b5b5050505050565b600073ffffffffffffffffffffffffffffffffffffffff168273ffffffffffffffffffffffffffffffffffffffff16036129ae576040517f08c379a00000000000000000000000000000000000000000000000000000000081526004016129a590614687565b60405180910390fd5b6129b78161239f565b156129f7576040517f08c379a00000000000000000000000000000000000000000000000000000000081526004016129ee906146f3565b60405180910390fd5b612a05600083836001612414565b612a0e8161239f565b15612a4e576040517f08c379a0000000000000000000000000000000000000000000000000000000008152600401612a45906146f3565b60405180910390fd5b6001600360008473ffffffffffffffffffffffffffffffffffffffff1673ffffffffffffffffffffffffffffffffffffffff16815260200190815260200160002060008282540192505081905550816002600083815260200190815260200160002060006101000a81548173ffffffffffffffffffffffffffffffffffffffff021916908373ffffffffffffffffffffffffffffffffffffffff160217905550808273ffffffffffffffffffffffffffffffffffffffff16600073ffffffffffffffffffffffffffffffffffffffff167fddf252ad1be2c89b69c2b068fc378daa952ba7f163c4a11628f55a4df523b3ef60405160405180910390a4612b58600083836001612426565b5050565b50505050565b6008805490506009600083815260200190815260200160002081905550600881908060018154018082558091505060019003906000526020600020016000909190919091505550565b60006001612bb884610ed6565b612bc291906141a4565b9050600060076000848152602001908152602001600020549050818114612ca7576000600660008673ffffffffffffffffffffffffffffffffffffffff1673ffffffffffffffffffffffffffffffffffffffff168152602001908152602001600020600084815260200190815260200160002054905080600660008773ffffffffffffffffffffffffffffffffffffffff1673ffffffffffffffffffffffffffffffffffffffff168152602001908152602001600020600084815260200190815260200160002081905550816007600083815260200190815260200160002081905550505b6007600084815260200190815260200160002060009055600660008573ffffffffffffffffffffffffffffffffffffffff1673ffffffffffffffffffffffffffffffffffffffff16815260200190815260200160002060008381526020019081526020016000206000905550505050565b60006001600880549050612d2c91906141a4565b9050600060096000848152602001908152602001600020549050600060088381548110612d5c57612d5b613b98565b5b906000526020600020015490508060088381548110612d7e57612d7d613b98565b5b906000526020600020018190555081600960008381526020019081526020016000208190555060096000858152602001908152602001600020600090556008805480612dcd57612dcc614713565b5b6001900381819060005260206000200160009055905550505050565b6000612df483610ed6565b905081600660008573ffffffffffffffffffffffffffffffffffffffff1673ffffffffffffffffffffffffffffffffffffffff168152602001908152602001600020600083815260200190815260200160002081905550806007600084815260200190815260200160002081905550505050565b6000604051905090565b600080fd5b600080fd5b60007fffffffff0000000000000000000000000000000000000000000000000000000082169050919050565b612eb181612e7c565b8114612ebc57600080fd5b50565b600081359050612ece81612ea8565b92915050565b600060208284031215612eea57612ee9612e72565b5b6000612ef884828501612ebf565b91505092915050565b60008115159050919050565b612f1681612f01565b82525050565b6000602082019050612f316000830184612f0d565b92915050565b600081519050919050565b600082825260208201905092915050565b60005b83811015612f71578082015181840152602081019050612f56565b60008484015250505050565b6000601f19601f8301169050919050565b6000612f9982612f37565b612fa38185612f42565b9350612fb3818560208601612f53565b612fbc81612f7d565b840191505092915050565b60006020820190508181036000830152612fe18184612f8e565b905092915050565b6000819050919050565b612ffc81612fe9565b811461300757600080fd5b50565b60008135905061301981612ff3565b92915050565b60006020828403121561303557613034612e72565b5b60006130438482850161300a565b91505092915050565b600073ffffffffffffffffffffffffffffffffffffffff82169050919050565b60006130778261304c565b9050919050565b6130878161306c565b82525050565b60006020820190506130a2600083018461307e565b92915050565b6130b18161306c565b81146130bc57600080fd5b50565b6000813590506130ce816130a8565b92915050565b600080604083850312156130eb576130ea612e72565b5b60006130f9858286016130bf565b925050602061310a8582860161300a565b9150509250929050565b61311d81612fe9565b82525050565b60006020820190506131386000830184613114565b92915050565b60008060006060848603121561315757613156612e72565b5b6000613165868287016130bf565b9350506020613176868287016130bf565b92505060406131878682870161300a565b9150509250925092565b6000602082840312156131a7576131a6612e72565b5b60006131b5848285016130bf565b91505092915050565b6000806000606084860312156131d7576131d6612e72565b5b60006131e58682870161300a565b93505060206131f68682870161300a565b92505060406132078682870161300a565b9150509250925092565b6000819050919050565b61322481613211565b82525050565b600060208201905061323f600083018461321b565b92915050565b600060408201905061325a6000830185613114565b6132676020830184613114565b9392505050565b61327781612f01565b811461328257600080fd5b50565b6000813590506132948161326e565b92915050565b600080604083850312156132b1576132b0612e72565b5b60006132bf858286016130bf565b92505060206132d085828601613285565b9150509250929050565b600080fd5b600080fd5b7f4e487b7100000000000000000000000000000000000000000000000000000000600052604160045260246000fd5b61331c82612f7d565b810181811067ffffffffffffffff8211171561333b5761333a6132e4565b5b80604052505050565b600061334e612e68565b905061335a8282613313565b919050565b600067ffffffffffffffff82111561337a576133796132e4565b5b61338382612f7d565b9050602081019050919050565b82818337600083830152505050565b60006133b26133ad8461335f565b613344565b9050828152602081018484840111156133ce576133cd6132df565b5b6133d9848285613390565b509392505050565b600082601f8301126133f6576133f56132da565b5b813561340684826020860161339f565b91505092915050565b6000806000806080858703121561342957613428612e72565b5b6000613437878288016130bf565b9450506020613448878288016130bf565b93505060406134598782880161300a565b925050606085013567ffffffffffffffff81111561347a57613479612e77565b5b613486878288016133e1565b91505092959194509250565b600080604083850312156134a9576134a8612e72565b5b60006134b7858286016130bf565b92505060206134c8858286016130bf565b9150509250929050565b7f4e487b7100000000000000000000000000000000000000000000000000000000600052602260045260246000fd5b6000600282049050600182168061351957607f821691505b60208210810361352c5761352b6134d2565b5b50919050565b7f4552433732313a20617070726f76616c20746f2063757272656e74206f776e6560008201527f7200000000000000000000000000000000000000000000000000000000000000602082015250565b600061358e602183612f42565b915061359982613532565b604082019050919050565b600060208201905081810360008301526135bd81613581565b9050919050565b7f4552433732313a20617070726f76652063616c6c6572206973206e6f7420746f60008201527f6b656e206f776e6572206f7220617070726f76656420666f7220616c6c000000602082015250565b6000613620603d83612f42565b915061362b826135c4565b604082019050919050565b6000602082019050818103600083015261364f81613613565b9050919050565b7f626574207374616b696e6720706572696f642068617320656e64656400000000600082015250565b600061368c601c83612f42565b915061369782613656565b602082019050919050565b600060208201905081810360008301526136bb8161367f565b9050919050565b7f47756573732070726963652063616e6e6f742062652030000000000000000000600082015250565b60006136f8601783612f42565b9150613703826136c2565b602082019050919050565b60006020820190508181036000830152613727816136eb565b9050919050565b7f696e76616c6964207374616b6520616d6f756e74000000000000000000000000600082015250565b6000613764601483612f42565b915061376f8261372e565b602082019050919050565b6000602082019050818103600083015261379381613757565b9050919050565b6000819050919050565b600061ffff82169050919050565b6000819050919050565b60006137d76137d26137cd8461379a565b6137b2565b6137a4565b9050919050565b6137e7816137bc565b82525050565b6000606082019050613802600083018661307e565b61380f602083018561307e565b61381c60408301846137de565b949350505050565b7f63616e6e6f742077697468647261772066756e647320696e206c6f636b696e2060008201527f707265696f640000000000000000000000000000000000000000000000000000602082015250565b6000613880602683612f42565b915061388b82613824565b604082019050919050565b600060208201905081810360008301526138af81613873565b9050919050565b7f74686973207469636b657420646f6573206e6f742062656c6f6e6720746f206360008201527f616c6c6572000000000000000000000000000000000000000000000000000000602082015250565b6000613912602583612f42565b915061391d826138b6565b604082019050919050565b6000602082019050818103600083015261394181613905565b9050919050565b7f4e487b7100000000000000000000000000000000000000000000000000000000600052601160045260246000fd5b600061398282612fe9565b915061398d83612fe9565b92508282019050808211156139a5576139a4613948565b5b92915050565b60006060820190506139c0600083018661307e565b6139cd6020830185613114565b6139da604083018461307e565b949350505050565b7f4552433732313a2063616c6c6572206973206e6f7420746f6b656e206f776e6560008201527f72206f7220617070726f76656400000000000000000000000000000000000000602082015250565b6000613a3e602d83612f42565b9150613a49826139e2565b604082019050919050565b60006020820190508181036000830152613a6d81613a31565b9050919050565b7f455243373231456e756d657261626c653a206f776e657220696e646578206f7560008201527f74206f6620626f756e6473000000000000000000000000000000000000000000602082015250565b6000613ad0602b83612f42565b9150613adb82613a74565b604082019050919050565b60006020820190508181036000830152613aff81613ac3565b9050919050565b7f455243373231456e756d657261626c653a20676c6f62616c20696e646578206f60008201527f7574206f6620626f756e64730000000000000000000000000000000000000000602082015250565b6000613b62602c83612f42565b9150613b6d82613b06565b604082019050919050565b60006020820190508181036000830152613b9181613b55565b9050919050565b7f4e487b7100000000000000000000000000000000000000000000000000000000600052603260045260246000fd5b7f4552433732313a20696e76616c696420746f6b656e2049440000000000000000600082015250565b6000613bfd601883612f42565b9150613c0882613bc7565b602082019050919050565b60006020820190508181036000830152613c2c81613bf0565b9050919050565b7f4552433732313a2061646472657373207a65726f206973206e6f74206120766160008201527f6c6964206f776e65720000000000000000000000000000000000000000000000602082015250565b6000613c8f602983612f42565b9150613c9a82613c33565b604082019050919050565b60006020820190508181036000830152613cbe81613c82565b9050919050565b7f496e697469616c697a61626c653a20636f6e747261637420697320616c72656160008201527f647920696e697469616c697a6564000000000000000000000000000000000000602082015250565b6000613d21602e83612f42565b9150613d2c82613cc5565b604082019050919050565b60006020820190508181036000830152613d5081613d14565b9050919050565b6000604082019050613d6c600083018561307e565b613d796020830184613114565b9392505050565b600081519050613d8f8161326e565b92915050565b600060208284031215613dab57613daa612e72565b5b6000613db984828501613d80565b91505092915050565b6000819050919050565b600060ff82169050919050565b6000613df4613def613dea84613dc2565b6137b2565b613dcc565b9050919050565b613e0481613dd9565b82525050565b6000602082019050613e1f6000830184613dfb565b92915050565b600069ffffffffffffffffffff82169050919050565b613e4481613e25565b8114613e4f57600080fd5b50565b600081519050613e6181613e3b565b92915050565b613e7081613211565b8114613e7b57600080fd5b50565b600081519050613e8d81613e67565b92915050565b600081519050613ea281612ff3565b92915050565b600080600080600060a08688031215613ec457613ec3612e72565b5b6000613ed288828901613e52565b9550506020613ee388828901613e7e565b9450506040613ef488828901613e93565b9350506060613f0588828901613e93565b9250506080613f1688828901613e52565b9150509295509295909350565b7f62657420686173206e6f7420656e646564000000000000000000000000000000600082015250565b6000613f59601183612f42565b9150613f6482613f23565b602082019050919050565b60006020820190508181036000830152613f8881613f4c565b9050919050565b7f546865726520617265206e6f2075736572730000000000000000000000000000600082015250565b6000613fc5601283612f42565b9150613fd082613f8f565b602082019050919050565b60006020820190508181036000830152613ff481613fb8565b9050919050565b600061400682612fe9565b91507fffffffffffffffffffffffffffffffffffffffffffffffffffffffffffffffff820361403857614037613948565b5b600182019050919050565b600081905092915050565b600061405982612f37565b6140638185614043565b9350614073818560208601612f53565b80840191505092915050565b600061408b828561404e565b9150614097828461404e565b91508190509392505050565b7f4f776e61626c653a206e6577206f776e657220697320746865207a65726f206160008201527f6464726573730000000000000000000000000000000000000000000000000000602082015250565b60006140ff602683612f42565b915061410a826140a3565b604082019050919050565b6000602082019050818103600083015261412e816140f2565b9050919050565b60006020828403121561414b5761414a612e72565b5b600061415984828501613e93565b91505092915050565b600061416d82612fe9565b915061417883612fe9565b925082820261418681612fe9565b9150828204841483151761419d5761419c613948565b5b5092915050565b60006141af82612fe9565b91506141ba83612fe9565b92508282039050818111156141d2576141d1613948565b5b92915050565b7f4552433732313a207472616e736665722066726f6d20696e636f72726563742060008201527f6f776e6572000000000000000000000000000000000000000000000000000000602082015250565b6000614234602583612f42565b915061423f826141d8565b604082019050919050565b6000602082019050818103600083015261426381614227565b9050919050565b7f4552433732313a207472616e7366657220746f20746865207a65726f2061646460008201527f7265737300000000000000000000000000000000000000000000000000000000602082015250565b60006142c6602483612f42565b91506142d18261426a565b604082019050919050565b600060208201905081810360008301526142f5816142b9565b9050919050565b7f4f776e61626c653a2063616c6c6572206973206e6f7420746865206f776e6572600082015250565b6000614332602083612f42565b915061433d826142fc565b602082019050919050565b6000602082019050818103600083015261436181614325565b9050919050565b7f4e487b7100000000000000000000000000000000000000000000000000000000600052601260045260246000fd5b60006143a282612fe9565b91506143ad83612fe9565b9250826143bd576143bc614368565b5b828204905092915050565b7f4552433732313a20617070726f766520746f2063616c6c657200000000000000600082015250565b60006143fe601983612f42565b9150614409826143c8565b602082019050919050565b6000602082019050818103600083015261442d816143f1565b9050919050565b7f4552433732313a207472616e7366657220746f206e6f6e20455243373231526560008201527f63656976657220696d706c656d656e7465720000000000000000000000000000602082015250565b6000614490603283612f42565b915061449b82614434565b604082019050919050565b600060208201905081810360008301526144bf81614483565b9050919050565b600081519050919050565b600082825260208201905092915050565b60006144ed826144c6565b6144f781856144d1565b9350614507818560208601612f53565b61451081612f7d565b840191505092915050565b6000608082019050614530600083018761307e565b61453d602083018661307e565b61454a6040830185613114565b818103606083015261455c81846144e2565b905095945050505050565b60008151905061457681612ea8565b92915050565b60006020828403121561459257614591612e72565b5b60006145a084828501614567565b91505092915050565b7f455243373231456e756d657261626c653a20636f6e736563757469766520747260008201527f616e7366657273206e6f7420737570706f727465640000000000000000000000602082015250565b6000614605603583612f42565b9150614610826145a9565b604082019050919050565b60006020820190508181036000830152614634816145f8565b9050919050565b7f4552433732313a206d696e7420746f20746865207a65726f2061646472657373600082015250565b6000614671602083612f42565b915061467c8261463b565b602082019050919050565b600060208201905081810360008301526146a081614664565b9050919050565b7f4552433732313a20746f6b656e20616c7265616479206d696e74656400000000600082015250565b60006146dd601c83612f42565b91506146e8826146a7565b602082019050919050565b6000602082019050818103600083015261470c816146d0565b9050919050565b7f4e487b7100000000000000000000000000000000000000000000000000000000600052603160045260246000fdfea2646970667358221220e10d4b9d944dc6dc5e662533bef4f8872d44a7461aacc46fa6666b8b79b75dbb64736f6c63430008120033",
  "linkReferences": {},
  "deployedLinkReferences": {}
}