{
  "_format": "hh-sol-artifact-1",
  "contractName": "BitcoinPrediction",
  "sourceName": "contracts/BitcoinPrediction.sol",
  "abi": [
    {
      "inputs": [
        {
          "internalType": "address",
          "name": "_BTC_USD_FEED_ADDRESS",
          "type": "address"
        },
        {
          "internalType": "address",
          "name": "_AAVE_V2_ADDRESS",
          "type": "address"
        },
        {
          "internalType": "address",
          "name": "_AAVE_ATOKEN_ADDRESS",
          "type": "address"
        },
        {
          "internalType": "address",
          "name": "_LENDING_POOL_PROVIDER_ADDRESS",
          "type": "address"
        }
      ],
      "stateMutability": "nonpayable",
      "type": "constructor"
    },
    {
      "anonymous": false,
      "inputs": [
        {
          "indexed": true,
          "internalType": "address",
          "name": "owner",
          "type": "address"
        },
        {
          "indexed": true,
          "internalType": "address",
          "name": "approved",
          "type": "address"
        },
        {
          "indexed": true,
          "internalType": "uint256",
          "name": "tokenId",
          "type": "uint256"
        }
      ],
      "name": "Approval",
      "type": "event"
    },
    {
      "anonymous": false,
      "inputs": [
        {
          "indexed": true,
          "internalType": "address",
          "name": "owner",
          "type": "address"
        },
        {
          "indexed": true,
          "internalType": "address",
          "name": "operator",
          "type": "address"
        },
        {
          "indexed": false,
          "internalType": "bool",
          "name": "approved",
          "type": "bool"
        }
      ],
      "name": "ApprovalForAll",
      "type": "event"
    },
    {
      "anonymous": false,
      "inputs": [
        {
          "indexed": false,
          "internalType": "address",
          "name": "proxyAddress",
          "type": "address"
        },
        {
          "indexed": true,
          "internalType": "address",
          "name": "user",
          "type": "address"
        },
        {
          "indexed": false,
          "internalType": "uint256",
          "name": "guessPrice",
          "type": "uint256"
        },
        {
          "indexed": false,
          "internalType": "uint256",
          "name": "ticketId",
          "type": "uint256"
        }
      ],
      "name": "BetPlaced",
      "type": "event"
    },
    {
      "anonymous": false,
      "inputs": [
        {
          "indexed": false,
          "internalType": "uint8",
          "name": "version",
          "type": "uint8"
        }
      ],
      "name": "Initialized",
      "type": "event"
    },
    {
      "anonymous": false,
      "inputs": [
        {
          "indexed": true,
          "internalType": "address",
          "name": "previousOwner",
          "type": "address"
        },
        {
          "indexed": true,
          "internalType": "address",
          "name": "newOwner",
          "type": "address"
        }
      ],
      "name": "OwnershipTransferred",
      "type": "event"
    },
    {
      "anonymous": false,
      "inputs": [
        {
          "indexed": true,
          "internalType": "address",
          "name": "from",
          "type": "address"
        },
        {
          "indexed": true,
          "internalType": "address",
          "name": "to",
          "type": "address"
        },
        {
          "indexed": true,
          "internalType": "uint256",
          "name": "tokenId",
          "type": "uint256"
        }
      ],
      "name": "Transfer",
      "type": "event"
    },
    {
      "anonymous": false,
      "inputs": [
        {
          "indexed": false,
          "internalType": "address",
          "name": "proxyAddress",
          "type": "address"
        },
        {
          "indexed": true,
          "internalType": "address",
          "name": "user",
          "type": "address"
        },
        {
          "indexed": false,
          "internalType": "uint256",
          "name": "ticketId",
          "type": "uint256"
        },
        {
          "indexed": false,
          "internalType": "uint256",
          "name": "guessPrice",
          "type": "uint256"
        }
      ],
      "name": "WinnerFound",
      "type": "event"
    },
    {
      "anonymous": false,
      "inputs": [
        {
          "indexed": false,
          "internalType": "address",
          "name": "proxyAddress",
          "type": "address"
        },
        {
          "indexed": true,
          "internalType": "address",
          "name": "user",
          "type": "address"
        },
        {
          "indexed": false,
          "internalType": "uint256",
          "name": "amount",
          "type": "uint256"
        },
        {
          "indexed": false,
          "internalType": "uint256",
          "name": "ticketId",
          "type": "uint256"
        }
      ],
      "name": "Withdrawal",
      "type": "event"
    },
    {
      "inputs": [
        {
          "internalType": "address",
          "name": "to",
          "type": "address"
        },
        {
          "internalType": "uint256",
          "name": "tokenId",
          "type": "uint256"
        }
      ],
      "name": "approve",
      "outputs": [],
      "stateMutability": "nonpayable",
      "type": "function"
    },
    {
      "inputs": [
        {
          "internalType": "address",
          "name": "owner",
          "type": "address"
        }
      ],
      "name": "balanceOf",
      "outputs": [
        {
          "internalType": "uint256",
          "name": "",
          "type": "uint256"
        }
      ],
      "stateMutability": "view",
      "type": "function"
    },
    {
      "inputs": [
        {
          "internalType": "uint256",
          "name": "",
          "type": "uint256"
        }
      ],
      "name": "bets",
      "outputs": [
        {
          "internalType": "uint256",
          "name": "",
          "type": "uint256"
        }
      ],
      "stateMutability": "view",
      "type": "function"
    },
    {
      "inputs": [],
      "name": "findWinner",
      "outputs": [
        {
          "internalType": "uint256",
          "name": "",
          "type": "uint256"
        },
        {
          "internalType": "uint256",
          "name": "",
          "type": "uint256"
        }
      ],
      "stateMutability": "nonpayable",
      "type": "function"
    },
    {
      "inputs": [
        {
          "internalType": "uint256",
          "name": "tokenId",
          "type": "uint256"
        }
      ],
      "name": "getApproved",
      "outputs": [
        {
          "internalType": "address",
          "name": "",
          "type": "address"
        }
      ],
      "stateMutability": "view",
      "type": "function"
    },
    {
      "inputs": [],
      "name": "getBitcoinPrice",
      "outputs": [
        {
          "internalType": "int256",
          "name": "",
          "type": "int256"
        }
      ],
      "stateMutability": "view",
      "type": "function"
    },
    {
      "inputs": [],
      "name": "getCurrentTokenId",
      "outputs": [
        {
          "internalType": "uint256",
          "name": "",
          "type": "uint256"
        }
      ],
      "stateMutability": "view",
      "type": "function"
    },
    {
      "inputs": [
        {
          "internalType": "uint256",
          "name": "_bettingPeriodEndsAt",
          "type": "uint256"
        },
        {
          "internalType": "uint256",
          "name": "_lockInPeriodEndsAt",
          "type": "uint256"
        },
        {
          "internalType": "uint256",
          "name": "_stakeAmount",
          "type": "uint256"
        }
      ],
      "name": "initialize",
      "outputs": [],
      "stateMutability": "nonpayable",
      "type": "function"
    },
    {
      "inputs": [
        {
          "internalType": "address",
          "name": "owner",
          "type": "address"
        },
        {
          "internalType": "address",
          "name": "operator",
          "type": "address"
        }
      ],
      "name": "isApprovedForAll",
      "outputs": [
        {
          "internalType": "bool",
          "name": "",
          "type": "bool"
        }
      ],
      "stateMutability": "view",
      "type": "function"
    },
    {
      "inputs": [],
      "name": "name",
      "outputs": [
        {
          "internalType": "string",
          "name": "",
          "type": "string"
        }
      ],
      "stateMutability": "view",
      "type": "function"
    },
    {
      "inputs": [],
      "name": "owner",
      "outputs": [
        {
          "internalType": "address",
          "name": "",
          "type": "address"
        }
      ],
      "stateMutability": "view",
      "type": "function"
    },
    {
      "inputs": [
        {
          "internalType": "uint256",
          "name": "tokenId",
          "type": "uint256"
        }
      ],
      "name": "ownerOf",
      "outputs": [
        {
          "internalType": "address",
          "name": "",
          "type": "address"
        }
      ],
      "stateMutability": "view",
      "type": "function"
    },
    {
      "inputs": [
        {
          "internalType": "uint256",
          "name": "_bitcoinGuesspriceInUSD",
          "type": "uint256"
        }
      ],
      "name": "placeBet",
      "outputs": [],
      "stateMutability": "payable",
      "type": "function"
    },
    {
      "inputs": [],
      "name": "renounceOwnership",
      "outputs": [],
      "stateMutability": "nonpayable",
      "type": "function"
    },
    {
      "inputs": [
        {
          "internalType": "address",
          "name": "from",
          "type": "address"
        },
        {
          "internalType": "address",
          "name": "to",
          "type": "address"
        },
        {
          "internalType": "uint256",
          "name": "tokenId",
          "type": "uint256"
        }
      ],
      "name": "safeTransferFrom",
      "outputs": [],
      "stateMutability": "nonpayable",
      "type": "function"
    },
    {
      "inputs": [
        {
          "internalType": "address",
          "name": "from",
          "type": "address"
        },
        {
          "internalType": "address",
          "name": "to",
          "type": "address"
        },
        {
          "internalType": "uint256",
          "name": "tokenId",
          "type": "uint256"
        },
        {
          "internalType": "bytes",
          "name": "data",
          "type": "bytes"
        }
      ],
      "name": "safeTransferFrom",
      "outputs": [],
      "stateMutability": "nonpayable",
      "type": "function"
    },
    {
      "inputs": [
        {
          "internalType": "address",
          "name": "operator",
          "type": "address"
        },
        {
          "internalType": "bool",
          "name": "approved",
          "type": "bool"
        }
      ],
      "name": "setApprovalForAll",
      "outputs": [],
      "stateMutability": "nonpayable",
      "type": "function"
    },
    {
      "inputs": [
        {
          "internalType": "bytes4",
          "name": "interfaceId",
          "type": "bytes4"
        }
      ],
      "name": "supportsInterface",
      "outputs": [
        {
          "internalType": "bool",
          "name": "",
          "type": "bool"
        }
      ],
      "stateMutability": "view",
      "type": "function"
    },
    {
      "inputs": [],
      "name": "symbol",
      "outputs": [
        {
          "internalType": "string",
          "name": "",
          "type": "string"
        }
      ],
      "stateMutability": "view",
      "type": "function"
    },
    {
      "inputs": [
        {
          "internalType": "uint256",
          "name": "index",
          "type": "uint256"
        }
      ],
      "name": "tokenByIndex",
      "outputs": [
        {
          "internalType": "uint256",
          "name": "",
          "type": "uint256"
        }
      ],
      "stateMutability": "view",
      "type": "function"
    },
    {
      "inputs": [
        {
          "internalType": "address",
          "name": "owner",
          "type": "address"
        },
        {
          "internalType": "uint256",
          "name": "index",
          "type": "uint256"
        }
      ],
      "name": "tokenOfOwnerByIndex",
      "outputs": [
        {
          "internalType": "uint256",
          "name": "",
          "type": "uint256"
        }
      ],
      "stateMutability": "view",
      "type": "function"
    },
    {
      "inputs": [
        {
          "internalType": "uint256",
          "name": "tokenId",
          "type": "uint256"
        }
      ],
      "name": "tokenURI",
      "outputs": [
        {
          "internalType": "string",
          "name": "",
          "type": "string"
        }
      ],
      "stateMutability": "view",
      "type": "function"
    },
    {
      "inputs": [],
      "name": "totalSupply",
      "outputs": [
        {
          "internalType": "uint256",
          "name": "",
          "type": "uint256"
        }
      ],
      "stateMutability": "view",
      "type": "function"
    },
    {
      "inputs": [
        {
          "internalType": "address",
          "name": "from",
          "type": "address"
        },
        {
          "internalType": "address",
          "name": "to",
          "type": "address"
        },
        {
          "internalType": "uint256",
          "name": "tokenId",
          "type": "uint256"
        }
      ],
      "name": "transferFrom",
      "outputs": [],
      "stateMutability": "nonpayable",
      "type": "function"
    },
    {
      "inputs": [
        {
          "internalType": "address",
          "name": "newOwner",
          "type": "address"
        }
      ],
      "name": "transferOwnership",
      "outputs": [],
      "stateMutability": "nonpayable",
      "type": "function"
    },
    {
      "inputs": [],
      "name": "winnerTicket",
      "outputs": [
        {
          "internalType": "uint256",
          "name": "",
          "type": "uint256"
        }
      ],
      "stateMutability": "view",
      "type": "function"
    },
    {
      "inputs": [
        {
          "internalType": "uint256",
          "name": "ticketId",
          "type": "uint256"
        }
      ],
      "name": "withdrawFunds",
      "outputs": [],
      "stateMutability": "nonpayable",
      "type": "function"
    },
    {
      "stateMutability": "payable",
      "type": "receive"
    }
  ],
  "bytecode": "0x6101206040523480156200001257600080fd5b5060405162005078380380620050788339818101604052810190620000389190620003bb565b6040518060400160405280600481526020017f4b697465000000000000000000000000000000000000000000000000000000008152506040518060400160405280600481526020017f4b495445000000000000000000000000000000000000000000000000000000008152508160009081620000b59190620006a7565b508060019081620000c79190620006a7565b505050620000ea620000de6200020860201b60201c565b6200021060201b60201c565b8373ffffffffffffffffffffffffffffffffffffffff1660808173ffffffffffffffffffffffffffffffffffffffff16815250508273ffffffffffffffffffffffffffffffffffffffff1660a08173ffffffffffffffffffffffffffffffffffffffff16815250508173ffffffffffffffffffffffffffffffffffffffff1660c08173ffffffffffffffffffffffffffffffffffffffff16815250508073ffffffffffffffffffffffffffffffffffffffff1660e08173ffffffffffffffffffffffffffffffffffffffff1681525050620001ca620002d660201b60201c565b73ffffffffffffffffffffffffffffffffffffffff166101008173ffffffffffffffffffffffffffffffffffffffff168152505050505050620007c0565b600033905090565b6000600a60009054906101000a900473ffffffffffffffffffffffffffffffffffffffff16905081600a60006101000a81548173ffffffffffffffffffffffffffffffffffffffff021916908373ffffffffffffffffffffffffffffffffffffffff1602179055508173ffffffffffffffffffffffffffffffffffffffff168173ffffffffffffffffffffffffffffffffffffffff167f8be0079c531659141344cd1fd0a4f28419497f9722a3daafe3b4186f6b6457e060405160405180910390a35050565b600060e05173ffffffffffffffffffffffffffffffffffffffff16630261bf8b6040518163ffffffff1660e01b8152600401602060405180830381865afa15801562000326573d6000803e3d6000fd5b505050506040513d601f19601f820116820180604052508101906200034c91906200078e565b905090565b600080fd5b600073ffffffffffffffffffffffffffffffffffffffff82169050919050565b6000620003838262000356565b9050919050565b620003958162000376565b8114620003a157600080fd5b50565b600081519050620003b5816200038a565b92915050565b60008060008060808587031215620003d857620003d762000351565b5b6000620003e887828801620003a4565b9450506020620003fb87828801620003a4565b93505060406200040e87828801620003a4565b92505060606200042187828801620003a4565b91505092959194509250565b600081519050919050565b7f4e487b7100000000000000000000000000000000000000000000000000000000600052604160045260246000fd5b7f4e487b7100000000000000000000000000000000000000000000000000000000600052602260045260246000fd5b60006002820490506001821680620004af57607f821691505b602082108103620004c557620004c462000467565b5b50919050565b60008190508160005260206000209050919050565b60006020601f8301049050919050565b600082821b905092915050565b6000600883026200052f7fffffffffffffffffffffffffffffffffffffffffffffffffffffffffffffffff82620004f0565b6200053b8683620004f0565b95508019841693508086168417925050509392505050565b6000819050919050565b6000819050919050565b600062000588620005826200057c8462000553565b6200055d565b62000553565b9050919050565b6000819050919050565b620005a48362000567565b620005bc620005b3826200058f565b848454620004fd565b825550505050565b600090565b620005d3620005c4565b620005e081848462000599565b505050565b5b818110156200060857620005fc600082620005c9565b600181019050620005e6565b5050565b601f82111562000657576200062181620004cb565b6200062c84620004e0565b810160208510156200063c578190505b620006546200064b85620004e0565b830182620005e5565b50505b505050565b600082821c905092915050565b60006200067c600019846008026200065c565b1980831691505092915050565b600062000697838362000669565b9150826002028217905092915050565b620006b2826200042d565b67ffffffffffffffff811115620006ce57620006cd62000438565b5b620006da825462000496565b620006e78282856200060c565b600060209050601f8311600181146200071f57600084156200070a578287015190505b62000716858262000689565b86555062000786565b601f1984166200072f86620004cb565b60005b82811015620007595784890151825560018201915060208501945060208101905062000732565b8683101562000779578489015162000775601f89168262000669565b8355505b6001600288020188555050505b505050505050565b600060208284031215620007a757620007a662000351565b5b6000620007b784828501620003a4565b91505092915050565b60805160a05160c05160e0516101005161485a6200081e600039600081816109d50152610bcd015260005050600081816110fe01526118f301526000818161099801528181610b91015261113a01526000611240015261485a6000f3fe6080604052600436106101a05760003560e01c80636352211e116100ec57806395d89b411161008a578063b88d4fde11610064578063b88d4fde146105d9578063c87b56dd14610602578063e985e9c51461063f578063f2fde38b1461067c576101a7565b806395d89b411461055a578063a22cb46514610585578063b16d2fd1146105ae576101a7565b806380d85911116100c657806380d85911146104af5780638300df49146104d85780638da5cb5b146105035780638e71decb1461052e576101a7565b80636352211e1461041e57806370a082311461045b578063715018a614610498576101a7565b806318160ddd116101595780632f745c59116101335780632f745c591461035057806342842e0e1461038d5780634f6ccce7146103b657806356189236146103f3576101a7565b806318160ddd146102bf57806322af00fa146102ea57806323b872dd14610327576101a7565b806301ffc9a7146101ac57806306fdde03146101e9578063081812fc14610214578063095ea7b31461025157806310fe7c481461027a578063155dd5ee14610296576101a7565b366101a757005b600080fd5b3480156101b857600080fd5b506101d360048036038101906101ce9190612f7f565b6106a5565b6040516101e09190612fc7565b60405180910390f35b3480156101f557600080fd5b506101fe6106b7565b60405161020b9190613072565b60405180910390f35b34801561022057600080fd5b5061023b600480360381019061023691906130ca565b610749565b6040516102489190613138565b60405180910390f35b34801561025d57600080fd5b506102786004803603810190610273919061317f565b61078f565b005b610294600480360381019061028f91906130ca565b6108a6565b005b3480156102a257600080fd5b506102bd60048036038101906102b891906130ca565b610a9d565b005b3480156102cb57600080fd5b506102d4610cea565b6040516102e191906131ce565b60405180910390f35b3480156102f657600080fd5b50610311600480360381019061030c91906130ca565b610cf7565b60405161031e91906131ce565b60405180910390f35b34801561033357600080fd5b5061034e600480360381019061034991906131e9565b610d0f565b005b34801561035c57600080fd5b506103776004803603810190610372919061317f565b610d6f565b60405161038491906131ce565b60405180910390f35b34801561039957600080fd5b506103b460048036038101906103af91906131e9565b610e14565b005b3480156103c257600080fd5b506103dd60048036038101906103d891906130ca565b610e34565b6040516103ea91906131ce565b60405180910390f35b3480156103ff57600080fd5b50610408610ea5565b60405161041591906131ce565b60405180910390f35b34801561042a57600080fd5b50610445600480360381019061044091906130ca565b610eb6565b6040516104529190613138565b60405180910390f35b34801561046757600080fd5b50610482600480360381019061047d919061323c565b610f3c565b60405161048f91906131ce565b60405180910390f35b3480156104a457600080fd5b506104ad610ff3565b005b3480156104bb57600080fd5b506104d660048036038101906104d19190613269565b611007565b005b3480156104e457600080fd5b506104ed61123b565b6040516104fa91906132d5565b60405180910390f35b34801561050f57600080fd5b506105186112da565b6040516105259190613138565b60405180910390f35b34801561053a57600080fd5b50610543611304565b6040516105519291906132f0565b60405180910390f35b34801561056657600080fd5b5061056f6114ad565b60405161057c9190613072565b60405180910390f35b34801561059157600080fd5b506105ac60048036038101906105a79190613345565b61153f565b005b3480156105ba57600080fd5b506105c3611555565b6040516105d091906131ce565b60405180910390f35b3480156105e557600080fd5b5061060060048036038101906105fb91906134ba565b61155b565b005b34801561060e57600080fd5b50610629600480360381019061062491906130ca565b6115bd565b6040516106369190613072565b60405180910390f35b34801561064b57600080fd5b506106666004803603810190610661919061353d565b611625565b6040516106739190612fc7565b60405180910390f35b34801561068857600080fd5b506106a3600480360381019061069e919061323c565b6116b9565b005b60006106b08261173c565b9050919050565b6060600080546106c6906135ac565b80601f01602080910402602001604051908101604052809291908181526020018280546106f2906135ac565b801561073f5780601f106107145761010080835404028352916020019161073f565b820191906000526020600020905b81548152906001019060200180831161072257829003601f168201915b5050505050905090565b6000610754826117b6565b6004600083815260200190815260200160002060009054906101000a900473ffffffffffffffffffffffffffffffffffffffff169050919050565b600061079a82610eb6565b90508073ffffffffffffffffffffffffffffffffffffffff168373ffffffffffffffffffffffffffffffffffffffff160361080a576040517f08c379a00000000000000000000000000000000000000000000000000000000081526004016108019061364f565b60405180910390fd5b8073ffffffffffffffffffffffffffffffffffffffff16610829611801565b73ffffffffffffffffffffffffffffffffffffffff161480610858575061085781610852611801565b611625565b5b610897576040517f08c379a000000000000000000000000000000000000000000000000000000000815260040161088e906136e1565b60405180910390fd5b6108a18383611809565b505050565b600d5442106108ea576040517f08c379a00000000000000000000000000000000000000000000000000000000081526004016108e19061374d565b60405180910390fd5b6000811161092d576040517f08c379a0000000000000000000000000000000000000000000000000000000008152600401610924906137b9565b60405180910390fd5b600f543414610971576040517f08c379a000000000000000000000000000000000000000000000000000000000815260040161096890613825565b60405180910390fd5b600061097c336118c2565b90508160116000838152602001908152602001600020819055507f000000000000000000000000000000000000000000000000000000000000000073ffffffffffffffffffffffffffffffffffffffff1663474cf53d347f00000000000000000000000000000000000000000000000000000000000000003060006040518563ffffffff1660e01b8152600401610a1593929190613898565b6000604051808303818588803b158015610a2e57600080fd5b505af1158015610a42573d6000803e3d6000fd5b50505050503373ffffffffffffffffffffffffffffffffffffffff167f61e034d80d9bd9b8dcd5d07434c03615017de4a6a229fe18bb93863bd20341a8308484604051610a91939291906138cf565b60405180910390a25050565b600d54421080610aae5750600e5442115b610aed576040517f08c379a0000000000000000000000000000000000000000000000000000000008152600401610ae490613978565b60405180910390fd5b3373ffffffffffffffffffffffffffffffffffffffff16610b0d82610eb6565b73ffffffffffffffffffffffffffffffffffffffff1614610b63576040517f08c379a0000000000000000000000000000000000000000000000000000000008152600401610b5a90613a0a565b60405180910390fd5b6000600f5490506010548203610b8f576000610b7d6118ee565b90508082610b8b9190613a59565b9150505b7f000000000000000000000000000000000000000000000000000000000000000073ffffffffffffffffffffffffffffffffffffffff166380500d207f000000000000000000000000000000000000000000000000000000000000000083306040518463ffffffff1660e01b8152600401610c0c93929190613a8d565b600060405180830381600087803b158015610c2657600080fd5b505af1158015610c3a573d6000803e3d6000fd5b50505050610c47826119da565b60003390508073ffffffffffffffffffffffffffffffffffffffff166108fc839081150290604051600060405180830381858888f19350505050158015610c92573d6000803e3d6000fd5b503373ffffffffffffffffffffffffffffffffffffffff167fc2b4a290c20fb28939d29f102514fbffd2b73c059ffba8b78250c94161d5fcc6308486604051610cdd939291906138cf565b60405180910390a2505050565b6000600880549050905090565b60116020528060005260406000206000915090505481565b610d20610d1a611801565b82611b28565b610d5f576040517f08c379a0000000000000000000000000000000000000000000000000000000008152600401610d5690613b36565b60405180910390fd5b610d6a838383611bbd565b505050565b6000610d7a83610f3c565b8210610dbb576040517f08c379a0000000000000000000000000000000000000000000000000000000008152600401610db290613bc8565b60405180910390fd5b600660008473ffffffffffffffffffffffffffffffffffffffff1673ffffffffffffffffffffffffffffffffffffffff168152602001908152602001600020600083815260200190815260200160002054905092915050565b610e2f8383836040518060200160405280600081525061155b565b505050565b6000610e3e610cea565b8210610e7f576040517f08c379a0000000000000000000000000000000000000000000000000000000008152600401610e7690613c5a565b60405180910390fd5b60088281548110610e9357610e92613c7a565b5b90600052602060002001549050919050565b6000610eb1600b611eb6565b905090565b600080610ec283611ec4565b9050600073ffffffffffffffffffffffffffffffffffffffff168173ffffffffffffffffffffffffffffffffffffffff1603610f33576040517f08c379a0000000000000000000000000000000000000000000000000000000008152600401610f2a90613cf5565b60405180910390fd5b80915050919050565b60008073ffffffffffffffffffffffffffffffffffffffff168273ffffffffffffffffffffffffffffffffffffffff1603610fac576040517f08c379a0000000000000000000000000000000000000000000000000000000008152600401610fa390613d87565b60405180910390fd5b600360008373ffffffffffffffffffffffffffffffffffffffff1673ffffffffffffffffffffffffffffffffffffffff168152602001908152602001600020549050919050565b610ffb611f01565b6110056000611f7f565b565b6000600c60019054906101000a900460ff1615905080801561103b57506001600c60009054906101000a900460ff1660ff16105b8061106a575061104a30612045565b15801561106957506001600c60009054906101000a900460ff1660ff16145b5b6110a9576040517f08c379a00000000000000000000000000000000000000000000000000000000081526004016110a090613e19565b60405180910390fd5b6001600c60006101000a81548160ff021916908360ff16021790555080156110e7576001600c60016101000a81548160ff0219169083151502179055505b83600d8190555082600e8190555081600f819055507f000000000000000000000000000000000000000000000000000000000000000073ffffffffffffffffffffffffffffffffffffffff1663095ea7b37f00000000000000000000000000000000000000000000000000000000000000007fffffffffffffffffffffffffffffffffffffffffffffffffffffffffffffffff6040518363ffffffff1660e01b8152600401611197929190613e39565b6020604051808303816000875af11580156111b6573d6000803e3d6000fd5b505050506040513d601f19601f820116820180604052508101906111da9190613e77565b508015611235576000600c60016101000a81548160ff0219169083151502179055507f7f26b83ff96e1f2b6a682f133852f6798a09c465da95921460cefb3847402498600160405161122c9190613eec565b60405180910390a15b50505050565b6000807f000000000000000000000000000000000000000000000000000000000000000073ffffffffffffffffffffffffffffffffffffffff1663feaf968c6040518163ffffffff1660e01b815260040160a060405180830381865afa1580156112a9573d6000803e3d6000fd5b505050506040513d601f19601f820116820180604052508101906112cd9190613f8a565b5050509150508091505090565b6000600a60009054906101000a900473ffffffffffffffffffffffffffffffffffffffff16905090565b600080600e54421161134b576040517f08c379a000000000000000000000000000000000000000000000000000000000815260040161134290614051565b60405180910390fd5b6000611355610ea5565b90506000811161139a576040517f08c379a0000000000000000000000000000000000000000000000000000000008152600401611391906140bd565b60405180910390fd5b60006113ba6305f5e1006113ac61123b565b61206890919063ffffffff16565b905060008060006113de60116000808152602001908152602001600020548561207e565b90506000600190505b858111611444576000601160008381526020019081526020016000205490506000811461143057600061141a828861207e565b90508381101561142e578093508195508294505b505b50808061143c906140dd565b9150506113e7565b50816010819055503373ffffffffffffffffffffffffffffffffffffffff167fea11809aeba51e21f24e01ca3a7c1faf79466368a23f47aaaaddc4951a1ee619308486604051611496939291906138cf565b60405180910390a281839650965050505050509091565b6060600180546114bc906135ac565b80601f01602080910402602001604051908101604052809291908181526020018280546114e8906135ac565b80156115355780601f1061150a57610100808354040283529160200191611535565b820191906000526020600020905b81548152906001019060200180831161151857829003601f168201915b5050505050905090565b61155161154a611801565b83836120bb565b5050565b60105481565b61156c611566611801565b83611b28565b6115ab576040517f08c379a00000000000000000000000000000000000000000000000000000000081526004016115a290613b36565b60405180910390fd5b6115b784848484612227565b50505050565b60606115c8826117b6565b60006115d2612283565b905060008151116115f2576040518060200160405280600081525061161d565b806115fc8461229a565b60405160200161160d929190614161565b6040516020818303038152906040525b915050919050565b6000600560008473ffffffffffffffffffffffffffffffffffffffff1673ffffffffffffffffffffffffffffffffffffffff16815260200190815260200160002060008373ffffffffffffffffffffffffffffffffffffffff1673ffffffffffffffffffffffffffffffffffffffff16815260200190815260200160002060009054906101000a900460ff16905092915050565b6116c1611f01565b600073ffffffffffffffffffffffffffffffffffffffff168173ffffffffffffffffffffffffffffffffffffffff1603611730576040517f08c379a0000000000000000000000000000000000000000000000000000000008152600401611727906141f7565b60405180910390fd5b61173981611f7f565b50565b60007f780e9d63000000000000000000000000000000000000000000000000000000007bffffffffffffffffffffffffffffffffffffffffffffffffffffffff1916827bffffffffffffffffffffffffffffffffffffffffffffffffffffffff191614806117af57506117ae82612368565b5b9050919050565b6117bf8161244a565b6117fe576040517f08c379a00000000000000000000000000000000000000000000000000000000081526004016117f590613cf5565b60405180910390fd5b50565b600033905090565b816004600083815260200190815260200160002060006101000a81548173ffffffffffffffffffffffffffffffffffffffff021916908373ffffffffffffffffffffffffffffffffffffffff160217905550808273ffffffffffffffffffffffffffffffffffffffff1661187c83610eb6565b73ffffffffffffffffffffffffffffffffffffffff167f8c5be1e5ebec7d5bd14f71427d1e84f3dd0314c0f7b2291e5b200ac8c7c3b92560405160405180910390a45050565b6000806118cf600b611eb6565b90506118db600b61248b565b6118e583826124a1565b80915050919050565b6000807f000000000000000000000000000000000000000000000000000000000000000073ffffffffffffffffffffffffffffffffffffffff166370a08231306040518263ffffffff1660e01b815260040161194a9190613138565b602060405180830381865afa158015611967573d6000803e3d6000fd5b505050506040513d601f19601f8201168201806040525081019061198b9190614217565b90506000611997610cea565b90506000600f54826119a99190614244565b9050808310156119bf57600093505050506119d7565b600081846119cd9190614286565b9050809450505050505b90565b60006119e582610eb6565b90506119f58160008460016124bf565b6119fe82610eb6565b90506004600083815260200190815260200160002060006101000a81549073ffffffffffffffffffffffffffffffffffffffff02191690556001600360008373ffffffffffffffffffffffffffffffffffffffff1673ffffffffffffffffffffffffffffffffffffffff168152602001908152602001600020600082825403925050819055506002600083815260200190815260200160002060006101000a81549073ffffffffffffffffffffffffffffffffffffffff021916905581600073ffffffffffffffffffffffffffffffffffffffff168273ffffffffffffffffffffffffffffffffffffffff167fddf252ad1be2c89b69c2b068fc378daa952ba7f163c4a11628f55a4df523b3ef60405160405180910390a4611b248160008460016124d1565b5050565b600080611b3483610eb6565b90508073ffffffffffffffffffffffffffffffffffffffff168473ffffffffffffffffffffffffffffffffffffffff161480611b765750611b758185611625565b5b80611bb457508373ffffffffffffffffffffffffffffffffffffffff16611b9c84610749565b73ffffffffffffffffffffffffffffffffffffffff16145b91505092915050565b8273ffffffffffffffffffffffffffffffffffffffff16611bdd82610eb6565b73ffffffffffffffffffffffffffffffffffffffff1614611c33576040517f08c379a0000000000000000000000000000000000000000000000000000000008152600401611c2a9061432c565b60405180910390fd5b600073ffffffffffffffffffffffffffffffffffffffff168273ffffffffffffffffffffffffffffffffffffffff1603611ca2576040517f08c379a0000000000000000000000000000000000000000000000000000000008152600401611c99906143be565b60405180910390fd5b611caf83838360016124bf565b8273ffffffffffffffffffffffffffffffffffffffff16611ccf82610eb6565b73ffffffffffffffffffffffffffffffffffffffff1614611d25576040517f08c379a0000000000000000000000000000000000000000000000000000000008152600401611d1c9061432c565b60405180910390fd5b6004600082815260200190815260200160002060006101000a81549073ffffffffffffffffffffffffffffffffffffffff02191690556001600360008573ffffffffffffffffffffffffffffffffffffffff1673ffffffffffffffffffffffffffffffffffffffff168152602001908152602001600020600082825403925050819055506001600360008473ffffffffffffffffffffffffffffffffffffffff1673ffffffffffffffffffffffffffffffffffffffff16815260200190815260200160002060008282540192505081905550816002600083815260200190815260200160002060006101000a81548173ffffffffffffffffffffffffffffffffffffffff021916908373ffffffffffffffffffffffffffffffffffffffff160217905550808273ffffffffffffffffffffffffffffffffffffffff168473ffffffffffffffffffffffffffffffffffffffff167fddf252ad1be2c89b69c2b068fc378daa952ba7f163c4a11628f55a4df523b3ef60405160405180910390a4611eb183838360016124d1565b505050565b600081600001549050919050565b60006002600083815260200190815260200160002060009054906101000a900473ffffffffffffffffffffffffffffffffffffffff169050919050565b611f09611801565b73ffffffffffffffffffffffffffffffffffffffff16611f276112da565b73ffffffffffffffffffffffffffffffffffffffff1614611f7d576040517f08c379a0000000000000000000000000000000000000000000000000000000008152600401611f749061442a565b60405180910390fd5b565b6000600a60009054906101000a900473ffffffffffffffffffffffffffffffffffffffff16905081600a60006101000a81548173ffffffffffffffffffffffffffffffffffffffff021916908373ffffffffffffffffffffffffffffffffffffffff1602179055508173ffffffffffffffffffffffffffffffffffffffff168173ffffffffffffffffffffffffffffffffffffffff167f8be0079c531659141344cd1fd0a4f28419497f9722a3daafe3b4186f6b6457e060405160405180910390a35050565b6000808273ffffffffffffffffffffffffffffffffffffffff163b119050919050565b600081836120769190614479565b905092915050565b600081831161209f5761209a83836124d790919063ffffffff16565b6120b3565b6120b282846124d790919063ffffffff16565b5b905092915050565b8173ffffffffffffffffffffffffffffffffffffffff168373ffffffffffffffffffffffffffffffffffffffff1603612129576040517f08c379a0000000000000000000000000000000000000000000000000000000008152600401612120906144f6565b60405180910390fd5b80600560008573ffffffffffffffffffffffffffffffffffffffff1673ffffffffffffffffffffffffffffffffffffffff16815260200190815260200160002060008473ffffffffffffffffffffffffffffffffffffffff1673ffffffffffffffffffffffffffffffffffffffff16815260200190815260200160002060006101000a81548160ff0219169083151502179055508173ffffffffffffffffffffffffffffffffffffffff168373ffffffffffffffffffffffffffffffffffffffff167f17307eab39ab6107e8899845ad3d59bd9653f200f220920489ca2b5937696c318360405161221a9190612fc7565b60405180910390a3505050565b612232848484611bbd565b61223e848484846124ed565b61227d576040517f08c379a000000000000000000000000000000000000000000000000000000000815260040161227490614588565b60405180910390fd5b50505050565b606060405180602001604052806000815250905090565b6060600060016122a984612674565b01905060008167ffffffffffffffff8111156122c8576122c761338f565b5b6040519080825280601f01601f1916602001820160405280156122fa5781602001600182028036833780820191505090505b509050600082602001820190505b60011561235d578080600190039150507f3031323334353637383961626364656600000000000000000000000000000000600a86061a8153600a85816123515761235061444a565b5b04945060008503612308575b819350505050919050565b60007f80ac58cd000000000000000000000000000000000000000000000000000000007bffffffffffffffffffffffffffffffffffffffffffffffffffffffff1916827bffffffffffffffffffffffffffffffffffffffffffffffffffffffff1916148061243357507f5b5e139f000000000000000000000000000000000000000000000000000000007bffffffffffffffffffffffffffffffffffffffffffffffffffffffff1916827bffffffffffffffffffffffffffffffffffffffffffffffffffffffff1916145b806124435750612442826127c7565b5b9050919050565b60008073ffffffffffffffffffffffffffffffffffffffff1661246c83611ec4565b73ffffffffffffffffffffffffffffffffffffffff1614159050919050565b6001816000016000828254019250508190555050565b6124bb828260405180602001604052806000815250612831565b5050565b6124cb8484848461288c565b50505050565b50505050565b600081836124e59190614286565b905092915050565b600061250e8473ffffffffffffffffffffffffffffffffffffffff16612045565b15612667578373ffffffffffffffffffffffffffffffffffffffff1663150b7a02612537611801565b8786866040518563ffffffff1660e01b815260040161255994939291906145fd565b6020604051808303816000875af192505050801561259557506040513d601f19601f82011682018060405250810190612592919061465e565b60015b612617573d80600081146125c5576040519150601f19603f3d011682016040523d82523d6000602084013e6125ca565b606091505b50600081510361260f576040517f08c379a000000000000000000000000000000000000000000000000000000000815260040161260690614588565b60405180910390fd5b805181602001fd5b63150b7a0260e01b7bffffffffffffffffffffffffffffffffffffffffffffffffffffffff1916817bffffffffffffffffffffffffffffffffffffffffffffffffffffffff19161491505061266c565b600190505b949350505050565b600080600090507a184f03e93ff9f4daa797ed6e38ed64bf6a1f01000000000000000083106126d2577a184f03e93ff9f4daa797ed6e38ed64bf6a1f01000000000000000083816126c8576126c761444a565b5b0492506040810190505b6d04ee2d6d415b85acef8100000000831061270f576d04ee2d6d415b85acef810000000083816127055761270461444a565b5b0492506020810190505b662386f26fc10000831061273e57662386f26fc1000083816127345761273361444a565b5b0492506010810190505b6305f5e1008310612767576305f5e100838161275d5761275c61444a565b5b0492506008810190505b612710831061278c5761271083816127825761278161444a565b5b0492506004810190505b606483106127af57606483816127a5576127a461444a565b5b0492506002810190505b600a83106127be576001810190505b80915050919050565b60007f01ffc9a7000000000000000000000000000000000000000000000000000000007bffffffffffffffffffffffffffffffffffffffffffffffffffffffff1916827bffffffffffffffffffffffffffffffffffffffffffffffffffffffff1916149050919050565b61283b83836129ea565b61284860008484846124ed565b612887576040517f08c379a000000000000000000000000000000000000000000000000000000000815260040161287e90614588565b60405180910390fd5b505050565b61289884848484612c07565b60018111156128dc576040517f08c379a00000000000000000000000000000000000000000000000000000000081526004016128d3906146fd565b60405180910390fd5b6000829050600073ffffffffffffffffffffffffffffffffffffffff168573ffffffffffffffffffffffffffffffffffffffff16036129235761291e81612c0d565b612962565b8373ffffffffffffffffffffffffffffffffffffffff168573ffffffffffffffffffffffffffffffffffffffff1614612961576129608582612c56565b5b5b600073ffffffffffffffffffffffffffffffffffffffff168473ffffffffffffffffffffffffffffffffffffffff16036129a45761299f81612dc3565b6129e3565b8473ffffffffffffffffffffffffffffffffffffffff168473ffffffffffffffffffffffffffffffffffffffff16146129e2576129e18482612e94565b5b5b5050505050565b600073ffffffffffffffffffffffffffffffffffffffff168273ffffffffffffffffffffffffffffffffffffffff1603612a59576040517f08c379a0000000000000000000000000000000000000000000000000000000008152600401612a5090614769565b60405180910390fd5b612a628161244a565b15612aa2576040517f08c379a0000000000000000000000000000000000000000000000000000000008152600401612a99906147d5565b60405180910390fd5b612ab06000838360016124bf565b612ab98161244a565b15612af9576040517f08c379a0000000000000000000000000000000000000000000000000000000008152600401612af0906147d5565b60405180910390fd5b6001600360008473ffffffffffffffffffffffffffffffffffffffff1673ffffffffffffffffffffffffffffffffffffffff16815260200190815260200160002060008282540192505081905550816002600083815260200190815260200160002060006101000a81548173ffffffffffffffffffffffffffffffffffffffff021916908373ffffffffffffffffffffffffffffffffffffffff160217905550808273ffffffffffffffffffffffffffffffffffffffff16600073ffffffffffffffffffffffffffffffffffffffff167fddf252ad1be2c89b69c2b068fc378daa952ba7f163c4a11628f55a4df523b3ef60405160405180910390a4612c036000838360016124d1565b5050565b50505050565b6008805490506009600083815260200190815260200160002081905550600881908060018154018082558091505060019003906000526020600020016000909190919091505550565b60006001612c6384610f3c565b612c6d9190614286565b9050600060076000848152602001908152602001600020549050818114612d52576000600660008673ffffffffffffffffffffffffffffffffffffffff1673ffffffffffffffffffffffffffffffffffffffff168152602001908152602001600020600084815260200190815260200160002054905080600660008773ffffffffffffffffffffffffffffffffffffffff1673ffffffffffffffffffffffffffffffffffffffff168152602001908152602001600020600084815260200190815260200160002081905550816007600083815260200190815260200160002081905550505b6007600084815260200190815260200160002060009055600660008573ffffffffffffffffffffffffffffffffffffffff1673ffffffffffffffffffffffffffffffffffffffff16815260200190815260200160002060008381526020019081526020016000206000905550505050565b60006001600880549050612dd79190614286565b9050600060096000848152602001908152602001600020549050600060088381548110612e0757612e06613c7a565b5b906000526020600020015490508060088381548110612e2957612e28613c7a565b5b906000526020600020018190555081600960008381526020019081526020016000208190555060096000858152602001908152602001600020600090556008805480612e7857612e776147f5565b5b6001900381819060005260206000200160009055905550505050565b6000612e9f83610f3c565b905081600660008573ffffffffffffffffffffffffffffffffffffffff1673ffffffffffffffffffffffffffffffffffffffff168152602001908152602001600020600083815260200190815260200160002081905550806007600084815260200190815260200160002081905550505050565b6000604051905090565b600080fd5b600080fd5b60007fffffffff0000000000000000000000000000000000000000000000000000000082169050919050565b612f5c81612f27565b8114612f6757600080fd5b50565b600081359050612f7981612f53565b92915050565b600060208284031215612f9557612f94612f1d565b5b6000612fa384828501612f6a565b91505092915050565b60008115159050919050565b612fc181612fac565b82525050565b6000602082019050612fdc6000830184612fb8565b92915050565b600081519050919050565b600082825260208201905092915050565b60005b8381101561301c578082015181840152602081019050613001565b60008484015250505050565b6000601f19601f8301169050919050565b600061304482612fe2565b61304e8185612fed565b935061305e818560208601612ffe565b61306781613028565b840191505092915050565b6000602082019050818103600083015261308c8184613039565b905092915050565b6000819050919050565b6130a781613094565b81146130b257600080fd5b50565b6000813590506130c48161309e565b92915050565b6000602082840312156130e0576130df612f1d565b5b60006130ee848285016130b5565b91505092915050565b600073ffffffffffffffffffffffffffffffffffffffff82169050919050565b6000613122826130f7565b9050919050565b61313281613117565b82525050565b600060208201905061314d6000830184613129565b92915050565b61315c81613117565b811461316757600080fd5b50565b60008135905061317981613153565b92915050565b6000806040838503121561319657613195612f1d565b5b60006131a48582860161316a565b92505060206131b5858286016130b5565b9150509250929050565b6131c881613094565b82525050565b60006020820190506131e360008301846131bf565b92915050565b60008060006060848603121561320257613201612f1d565b5b60006132108682870161316a565b93505060206132218682870161316a565b9250506040613232868287016130b5565b9150509250925092565b60006020828403121561325257613251612f1d565b5b60006132608482850161316a565b91505092915050565b60008060006060848603121561328257613281612f1d565b5b6000613290868287016130b5565b93505060206132a1868287016130b5565b92505060406132b2868287016130b5565b9150509250925092565b6000819050919050565b6132cf816132bc565b82525050565b60006020820190506132ea60008301846132c6565b92915050565b600060408201905061330560008301856131bf565b61331260208301846131bf565b9392505050565b61332281612fac565b811461332d57600080fd5b50565b60008135905061333f81613319565b92915050565b6000806040838503121561335c5761335b612f1d565b5b600061336a8582860161316a565b925050602061337b85828601613330565b9150509250929050565b600080fd5b600080fd5b7f4e487b7100000000000000000000000000000000000000000000000000000000600052604160045260246000fd5b6133c782613028565b810181811067ffffffffffffffff821117156133e6576133e561338f565b5b80604052505050565b60006133f9612f13565b905061340582826133be565b919050565b600067ffffffffffffffff8211156134255761342461338f565b5b61342e82613028565b9050602081019050919050565b82818337600083830152505050565b600061345d6134588461340a565b6133ef565b9050828152602081018484840111156134795761347861338a565b5b61348484828561343b565b509392505050565b600082601f8301126134a1576134a0613385565b5b81356134b184826020860161344a565b91505092915050565b600080600080608085870312156134d4576134d3612f1d565b5b60006134e28782880161316a565b94505060206134f38782880161316a565b9350506040613504878288016130b5565b925050606085013567ffffffffffffffff81111561352557613524612f22565b5b6135318782880161348c565b91505092959194509250565b6000806040838503121561355457613553612f1d565b5b60006135628582860161316a565b92505060206135738582860161316a565b9150509250929050565b7f4e487b7100000000000000000000000000000000000000000000000000000000600052602260045260246000fd5b600060028204905060018216806135c457607f821691505b6020821081036135d7576135d661357d565b5b50919050565b7f4552433732313a20617070726f76616c20746f2063757272656e74206f776e6560008201527f7200000000000000000000000000000000000000000000000000000000000000602082015250565b6000613639602183612fed565b9150613644826135dd565b604082019050919050565b600060208201905081810360008301526136688161362c565b9050919050565b7f4552433732313a20617070726f76652063616c6c6572206973206e6f7420746f60008201527f6b656e206f776e6572206f7220617070726f76656420666f7220616c6c000000602082015250565b60006136cb603d83612fed565b91506136d68261366f565b604082019050919050565b600060208201905081810360008301526136fa816136be565b9050919050565b7f626574207374616b696e6720706572696f642068617320656e64656400000000600082015250565b6000613737601c83612fed565b915061374282613701565b602082019050919050565b600060208201905081810360008301526137668161372a565b9050919050565b7f47756573732070726963652063616e6e6f742062652030000000000000000000600082015250565b60006137a3601783612fed565b91506137ae8261376d565b602082019050919050565b600060208201905081810360008301526137d281613796565b9050919050565b7f696e76616c6964207374616b6520616d6f756e74000000000000000000000000600082015250565b600061380f601483612fed565b915061381a826137d9565b602082019050919050565b6000602082019050818103600083015261383e81613802565b9050919050565b6000819050919050565b600061ffff82169050919050565b6000819050919050565b600061388261387d61387884613845565b61385d565b61384f565b9050919050565b61389281613867565b82525050565b60006060820190506138ad6000830186613129565b6138ba6020830185613129565b6138c76040830184613889565b949350505050565b60006060820190506138e46000830186613129565b6138f160208301856131bf565b6138fe60408301846131bf565b949350505050565b7f63616e6e6f742077697468647261772066756e647320696e206c6f636b696e2060008201527f707265696f640000000000000000000000000000000000000000000000000000602082015250565b6000613962602683612fed565b915061396d82613906565b604082019050919050565b6000602082019050818103600083015261399181613955565b9050919050565b7f74686973207469636b657420646f6573206e6f742062656c6f6e6720746f206360008201527f616c6c6572000000000000000000000000000000000000000000000000000000602082015250565b60006139f4602583612fed565b91506139ff82613998565b604082019050919050565b60006020820190508181036000830152613a23816139e7565b9050919050565b7f4e487b7100000000000000000000000000000000000000000000000000000000600052601160045260246000fd5b6000613a6482613094565b9150613a6f83613094565b9250828201905080821115613a8757613a86613a2a565b5b92915050565b6000606082019050613aa26000830186613129565b613aaf60208301856131bf565b613abc6040830184613129565b949350505050565b7f4552433732313a2063616c6c6572206973206e6f7420746f6b656e206f776e6560008201527f72206f7220617070726f76656400000000000000000000000000000000000000602082015250565b6000613b20602d83612fed565b9150613b2b82613ac4565b604082019050919050565b60006020820190508181036000830152613b4f81613b13565b9050919050565b7f455243373231456e756d657261626c653a206f776e657220696e646578206f7560008201527f74206f6620626f756e6473000000000000000000000000000000000000000000602082015250565b6000613bb2602b83612fed565b9150613bbd82613b56565b604082019050919050565b60006020820190508181036000830152613be181613ba5565b9050919050565b7f455243373231456e756d657261626c653a20676c6f62616c20696e646578206f60008201527f7574206f6620626f756e64730000000000000000000000000000000000000000602082015250565b6000613c44602c83612fed565b9150613c4f82613be8565b604082019050919050565b60006020820190508181036000830152613c7381613c37565b9050919050565b7f4e487b7100000000000000000000000000000000000000000000000000000000600052603260045260246000fd5b7f4552433732313a20696e76616c696420746f6b656e2049440000000000000000600082015250565b6000613cdf601883612fed565b9150613cea82613ca9565b602082019050919050565b60006020820190508181036000830152613d0e81613cd2565b9050919050565b7f4552433732313a2061646472657373207a65726f206973206e6f74206120766160008201527f6c6964206f776e65720000000000000000000000000000000000000000000000602082015250565b6000613d71602983612fed565b9150613d7c82613d15565b604082019050919050565b60006020820190508181036000830152613da081613d64565b9050919050565b7f496e697469616c697a61626c653a20636f6e747261637420697320616c72656160008201527f647920696e697469616c697a6564000000000000000000000000000000000000602082015250565b6000613e03602e83612fed565b9150613e0e82613da7565b604082019050919050565b60006020820190508181036000830152613e3281613df6565b9050919050565b6000604082019050613e4e6000830185613129565b613e5b60208301846131bf565b9392505050565b600081519050613e7181613319565b92915050565b600060208284031215613e8d57613e8c612f1d565b5b6000613e9b84828501613e62565b91505092915050565b6000819050919050565b600060ff82169050919050565b6000613ed6613ed1613ecc84613ea4565b61385d565b613eae565b9050919050565b613ee681613ebb565b82525050565b6000602082019050613f016000830184613edd565b92915050565b600069ffffffffffffffffffff82169050919050565b613f2681613f07565b8114613f3157600080fd5b50565b600081519050613f4381613f1d565b92915050565b613f52816132bc565b8114613f5d57600080fd5b50565b600081519050613f6f81613f49565b92915050565b600081519050613f848161309e565b92915050565b600080600080600060a08688031215613fa657613fa5612f1d565b5b6000613fb488828901613f34565b9550506020613fc588828901613f60565b9450506040613fd688828901613f75565b9350506060613fe788828901613f75565b9250506080613ff888828901613f34565b9150509295509295909350565b7f62657420686173206e6f7420656e646564000000000000000000000000000000600082015250565b600061403b601183612fed565b915061404682614005565b602082019050919050565b6000602082019050818103600083015261406a8161402e565b9050919050565b7f546865726520617265206e6f2075736572730000000000000000000000000000600082015250565b60006140a7601283612fed565b91506140b282614071565b602082019050919050565b600060208201905081810360008301526140d68161409a565b9050919050565b60006140e882613094565b91507fffffffffffffffffffffffffffffffffffffffffffffffffffffffffffffffff820361411a57614119613a2a565b5b600182019050919050565b600081905092915050565b600061413b82612fe2565b6141458185614125565b9350614155818560208601612ffe565b80840191505092915050565b600061416d8285614130565b91506141798284614130565b91508190509392505050565b7f4f776e61626c653a206e6577206f776e657220697320746865207a65726f206160008201527f6464726573730000000000000000000000000000000000000000000000000000602082015250565b60006141e1602683612fed565b91506141ec82614185565b604082019050919050565b60006020820190508181036000830152614210816141d4565b9050919050565b60006020828403121561422d5761422c612f1d565b5b600061423b84828501613f75565b91505092915050565b600061424f82613094565b915061425a83613094565b925082820261426881613094565b9150828204841483151761427f5761427e613a2a565b5b5092915050565b600061429182613094565b915061429c83613094565b92508282039050818111156142b4576142b3613a2a565b5b92915050565b7f4552433732313a207472616e736665722066726f6d20696e636f72726563742060008201527f6f776e6572000000000000000000000000000000000000000000000000000000602082015250565b6000614316602583612fed565b9150614321826142ba565b604082019050919050565b6000602082019050818103600083015261434581614309565b9050919050565b7f4552433732313a207472616e7366657220746f20746865207a65726f2061646460008201527f7265737300000000000000000000000000000000000000000000000000000000602082015250565b60006143a8602483612fed565b91506143b38261434c565b604082019050919050565b600060208201905081810360008301526143d78161439b565b9050919050565b7f4f776e61626c653a2063616c6c6572206973206e6f7420746865206f776e6572600082015250565b6000614414602083612fed565b915061441f826143de565b602082019050919050565b6000602082019050818103600083015261444381614407565b9050919050565b7f4e487b7100000000000000000000000000000000000000000000000000000000600052601260045260246000fd5b600061448482613094565b915061448f83613094565b92508261449f5761449e61444a565b5b828204905092915050565b7f4552433732313a20617070726f766520746f2063616c6c657200000000000000600082015250565b60006144e0601983612fed565b91506144eb826144aa565b602082019050919050565b6000602082019050818103600083015261450f816144d3565b9050919050565b7f4552433732313a207472616e7366657220746f206e6f6e20455243373231526560008201527f63656976657220696d706c656d656e7465720000000000000000000000000000602082015250565b6000614572603283612fed565b915061457d82614516565b604082019050919050565b600060208201905081810360008301526145a181614565565b9050919050565b600081519050919050565b600082825260208201905092915050565b60006145cf826145a8565b6145d981856145b3565b93506145e9818560208601612ffe565b6145f281613028565b840191505092915050565b60006080820190506146126000830187613129565b61461f6020830186613129565b61462c60408301856131bf565b818103606083015261463e81846145c4565b905095945050505050565b60008151905061465881612f53565b92915050565b60006020828403121561467457614673612f1d565b5b600061468284828501614649565b91505092915050565b7f455243373231456e756d657261626c653a20636f6e736563757469766520747260008201527f616e7366657273206e6f7420737570706f727465640000000000000000000000602082015250565b60006146e7603583612fed565b91506146f28261468b565b604082019050919050565b60006020820190508181036000830152614716816146da565b9050919050565b7f4552433732313a206d696e7420746f20746865207a65726f2061646472657373600082015250565b6000614753602083612fed565b915061475e8261471d565b602082019050919050565b6000602082019050818103600083015261478281614746565b9050919050565b7f4552433732313a20746f6b656e20616c7265616479206d696e74656400000000600082015250565b60006147bf601c83612fed565b91506147ca82614789565b602082019050919050565b600060208201905081810360008301526147ee816147b2565b9050919050565b7f4e487b7100000000000000000000000000000000000000000000000000000000600052603160045260246000fdfea26469706673582212208d2d56f2d948f2fe66824be4f21ac4303d81883ef018e85db7578b73dfa0553164736f6c63430008120033",
  "linkReferences": {},
  "deployedLinkReferences": {}
}