{
  "_format": "hh-sol-artifact-1",
  "contractName": "BitcoinPrediction",
  "sourceName": "contracts/BitcoinPrediction.sol",
  "abi": [
    {
      "inputs": [
        {
          "internalType": "address",
          "name": "_BTC_USD_FEED_ADDRESS",
          "type": "address"
        },
        {
          "internalType": "address",
          "name": "_AAVE_V2_ADDRESS",
          "type": "address"
        },
        {
          "internalType": "address",
          "name": "_AAVE_ATOKEN_ADDRESS",
          "type": "address"
        },
        {
          "internalType": "address",
          "name": "_LENDING_POOL_PROVIDER_ADDRESS",
          "type": "address"
        }
      ],
      "stateMutability": "nonpayable",
      "type": "constructor"
    },
    {
      "anonymous": false,
      "inputs": [
        {
          "indexed": true,
          "internalType": "address",
          "name": "owner",
          "type": "address"
        },
        {
          "indexed": true,
          "internalType": "address",
          "name": "approved",
          "type": "address"
        },
        {
          "indexed": true,
          "internalType": "uint256",
          "name": "tokenId",
          "type": "uint256"
        }
      ],
      "name": "Approval",
      "type": "event"
    },
    {
      "anonymous": false,
      "inputs": [
        {
          "indexed": true,
          "internalType": "address",
          "name": "owner",
          "type": "address"
        },
        {
          "indexed": true,
          "internalType": "address",
          "name": "operator",
          "type": "address"
        },
        {
          "indexed": false,
          "internalType": "bool",
          "name": "approved",
          "type": "bool"
        }
      ],
      "name": "ApprovalForAll",
      "type": "event"
    },
    {
      "anonymous": false,
      "inputs": [
        {
          "indexed": true,
          "internalType": "address",
          "name": "proxyAddress",
          "type": "address"
        },
        {
          "indexed": true,
          "internalType": "address",
          "name": "user",
          "type": "address"
        },
        {
          "indexed": false,
          "internalType": "uint256",
          "name": "guessPrice",
          "type": "uint256"
        },
        {
          "indexed": false,
          "internalType": "uint256",
          "name": "ticketId",
          "type": "uint256"
        }
      ],
      "name": "BetPlaced",
      "type": "event"
    },
    {
      "anonymous": false,
      "inputs": [
        {
          "indexed": false,
          "internalType": "uint8",
          "name": "version",
          "type": "uint8"
        }
      ],
      "name": "Initialized",
      "type": "event"
    },
    {
      "anonymous": false,
      "inputs": [
        {
          "indexed": true,
          "internalType": "address",
          "name": "previousOwner",
          "type": "address"
        },
        {
          "indexed": true,
          "internalType": "address",
          "name": "newOwner",
          "type": "address"
        }
      ],
      "name": "OwnershipTransferred",
      "type": "event"
    },
    {
      "anonymous": false,
      "inputs": [
        {
          "indexed": true,
          "internalType": "address",
          "name": "from",
          "type": "address"
        },
        {
          "indexed": true,
          "internalType": "address",
          "name": "to",
          "type": "address"
        },
        {
          "indexed": true,
          "internalType": "uint256",
          "name": "tokenId",
          "type": "uint256"
        }
      ],
      "name": "Transfer",
      "type": "event"
    },
    {
      "anonymous": false,
      "inputs": [
        {
          "indexed": true,
          "internalType": "address",
          "name": "proxyAddress",
          "type": "address"
        },
        {
          "indexed": true,
          "internalType": "address",
          "name": "user",
          "type": "address"
        },
        {
          "indexed": false,
          "internalType": "uint256",
          "name": "ticketId",
          "type": "uint256"
        },
        {
          "indexed": false,
          "internalType": "uint256",
          "name": "guessPrice",
          "type": "uint256"
        }
      ],
      "name": "WinnerFound",
      "type": "event"
    },
    {
      "anonymous": false,
      "inputs": [
        {
          "indexed": true,
          "internalType": "address",
          "name": "proxyAddress",
          "type": "address"
        },
        {
          "indexed": true,
          "internalType": "address",
          "name": "user",
          "type": "address"
        },
        {
          "indexed": false,
          "internalType": "uint256",
          "name": "amount",
          "type": "uint256"
        },
        {
          "indexed": false,
          "internalType": "uint256",
          "name": "ticketId",
          "type": "uint256"
        }
      ],
      "name": "Withdrawal",
      "type": "event"
    },
    {
      "inputs": [
        {
          "internalType": "address",
          "name": "to",
          "type": "address"
        },
        {
          "internalType": "uint256",
          "name": "tokenId",
          "type": "uint256"
        }
      ],
      "name": "approve",
      "outputs": [],
      "stateMutability": "nonpayable",
      "type": "function"
    },
    {
      "inputs": [
        {
          "internalType": "address",
          "name": "owner",
          "type": "address"
        }
      ],
      "name": "balanceOf",
      "outputs": [
        {
          "internalType": "uint256",
          "name": "",
          "type": "uint256"
        }
      ],
      "stateMutability": "view",
      "type": "function"
    },
    {
      "inputs": [
        {
          "internalType": "uint256",
          "name": "",
          "type": "uint256"
        }
      ],
      "name": "bets",
      "outputs": [
        {
          "internalType": "uint256",
          "name": "",
          "type": "uint256"
        }
      ],
      "stateMutability": "view",
      "type": "function"
    },
    {
      "inputs": [],
      "name": "findWinner",
      "outputs": [
        {
          "internalType": "uint256",
          "name": "",
          "type": "uint256"
        },
        {
          "internalType": "uint256",
          "name": "",
          "type": "uint256"
        }
      ],
      "stateMutability": "nonpayable",
      "type": "function"
    },
    {
      "inputs": [
        {
          "internalType": "uint256",
          "name": "tokenId",
          "type": "uint256"
        }
      ],
      "name": "getApproved",
      "outputs": [
        {
          "internalType": "address",
          "name": "",
          "type": "address"
        }
      ],
      "stateMutability": "view",
      "type": "function"
    },
    {
      "inputs": [],
      "name": "getBitcoinPrice",
      "outputs": [
        {
          "internalType": "int256",
          "name": "",
          "type": "int256"
        }
      ],
      "stateMutability": "view",
      "type": "function"
    },
    {
      "inputs": [],
      "name": "getCurrentTokenId",
      "outputs": [
        {
          "internalType": "uint256",
          "name": "",
          "type": "uint256"
        }
      ],
      "stateMutability": "view",
      "type": "function"
    },
    {
      "inputs": [
        {
          "internalType": "uint256",
          "name": "_bettingPeriodEndsAt",
          "type": "uint256"
        },
        {
          "internalType": "uint256",
          "name": "_lockInPeriodEndsAt",
          "type": "uint256"
        },
        {
          "internalType": "uint256",
          "name": "_stakeAmount",
          "type": "uint256"
        }
      ],
      "name": "initialize",
      "outputs": [],
      "stateMutability": "nonpayable",
      "type": "function"
    },
    {
      "inputs": [
        {
          "internalType": "address",
          "name": "owner",
          "type": "address"
        },
        {
          "internalType": "address",
          "name": "operator",
          "type": "address"
        }
      ],
      "name": "isApprovedForAll",
      "outputs": [
        {
          "internalType": "bool",
          "name": "",
          "type": "bool"
        }
      ],
      "stateMutability": "view",
      "type": "function"
    },
    {
      "inputs": [],
      "name": "name",
      "outputs": [
        {
          "internalType": "string",
          "name": "",
          "type": "string"
        }
      ],
      "stateMutability": "view",
      "type": "function"
    },
    {
      "inputs": [],
      "name": "owner",
      "outputs": [
        {
          "internalType": "address",
          "name": "",
          "type": "address"
        }
      ],
      "stateMutability": "view",
      "type": "function"
    },
    {
      "inputs": [
        {
          "internalType": "uint256",
          "name": "tokenId",
          "type": "uint256"
        }
      ],
      "name": "ownerOf",
      "outputs": [
        {
          "internalType": "address",
          "name": "",
          "type": "address"
        }
      ],
      "stateMutability": "view",
      "type": "function"
    },
    {
      "inputs": [
        {
          "internalType": "uint256",
          "name": "_bitcoinGuesspriceInUSD",
          "type": "uint256"
        }
      ],
      "name": "placeBet",
      "outputs": [],
      "stateMutability": "payable",
      "type": "function"
    },
    {
      "inputs": [],
      "name": "renounceOwnership",
      "outputs": [],
      "stateMutability": "nonpayable",
      "type": "function"
    },
    {
      "inputs": [
        {
          "internalType": "address",
          "name": "from",
          "type": "address"
        },
        {
          "internalType": "address",
          "name": "to",
          "type": "address"
        },
        {
          "internalType": "uint256",
          "name": "tokenId",
          "type": "uint256"
        }
      ],
      "name": "safeTransferFrom",
      "outputs": [],
      "stateMutability": "nonpayable",
      "type": "function"
    },
    {
      "inputs": [
        {
          "internalType": "address",
          "name": "from",
          "type": "address"
        },
        {
          "internalType": "address",
          "name": "to",
          "type": "address"
        },
        {
          "internalType": "uint256",
          "name": "tokenId",
          "type": "uint256"
        },
        {
          "internalType": "bytes",
          "name": "data",
          "type": "bytes"
        }
      ],
      "name": "safeTransferFrom",
      "outputs": [],
      "stateMutability": "nonpayable",
      "type": "function"
    },
    {
      "inputs": [
        {
          "internalType": "address",
          "name": "operator",
          "type": "address"
        },
        {
          "internalType": "bool",
          "name": "approved",
          "type": "bool"
        }
      ],
      "name": "setApprovalForAll",
      "outputs": [],
      "stateMutability": "nonpayable",
      "type": "function"
    },
    {
      "inputs": [
        {
          "internalType": "bytes4",
          "name": "interfaceId",
          "type": "bytes4"
        }
      ],
      "name": "supportsInterface",
      "outputs": [
        {
          "internalType": "bool",
          "name": "",
          "type": "bool"
        }
      ],
      "stateMutability": "view",
      "type": "function"
    },
    {
      "inputs": [],
      "name": "symbol",
      "outputs": [
        {
          "internalType": "string",
          "name": "",
          "type": "string"
        }
      ],
      "stateMutability": "view",
      "type": "function"
    },
    {
      "inputs": [
        {
          "internalType": "uint256",
          "name": "index",
          "type": "uint256"
        }
      ],
      "name": "tokenByIndex",
      "outputs": [
        {
          "internalType": "uint256",
          "name": "",
          "type": "uint256"
        }
      ],
      "stateMutability": "view",
      "type": "function"
    },
    {
      "inputs": [
        {
          "internalType": "address",
          "name": "owner",
          "type": "address"
        },
        {
          "internalType": "uint256",
          "name": "index",
          "type": "uint256"
        }
      ],
      "name": "tokenOfOwnerByIndex",
      "outputs": [
        {
          "internalType": "uint256",
          "name": "",
          "type": "uint256"
        }
      ],
      "stateMutability": "view",
      "type": "function"
    },
    {
      "inputs": [
        {
          "internalType": "uint256",
          "name": "tokenId",
          "type": "uint256"
        }
      ],
      "name": "tokenURI",
      "outputs": [
        {
          "internalType": "string",
          "name": "",
          "type": "string"
        }
      ],
      "stateMutability": "view",
      "type": "function"
    },
    {
      "inputs": [],
      "name": "totalSupply",
      "outputs": [
        {
          "internalType": "uint256",
          "name": "",
          "type": "uint256"
        }
      ],
      "stateMutability": "view",
      "type": "function"
    },
    {
      "inputs": [
        {
          "internalType": "address",
          "name": "from",
          "type": "address"
        },
        {
          "internalType": "address",
          "name": "to",
          "type": "address"
        },
        {
          "internalType": "uint256",
          "name": "tokenId",
          "type": "uint256"
        }
      ],
      "name": "transferFrom",
      "outputs": [],
      "stateMutability": "nonpayable",
      "type": "function"
    },
    {
      "inputs": [
        {
          "internalType": "address",
          "name": "newOwner",
          "type": "address"
        }
      ],
      "name": "transferOwnership",
      "outputs": [],
      "stateMutability": "nonpayable",
      "type": "function"
    },
    {
      "inputs": [],
      "name": "winnerTicket",
      "outputs": [
        {
          "internalType": "uint256",
          "name": "",
          "type": "uint256"
        }
      ],
      "stateMutability": "view",
      "type": "function"
    },
    {
      "inputs": [
        {
          "internalType": "uint256",
          "name": "ticketId",
          "type": "uint256"
        }
      ],
      "name": "withdrawFunds",
      "outputs": [],
      "stateMutability": "nonpayable",
      "type": "function"
    },
    {
      "stateMutability": "payable",
      "type": "receive"
    }
  ],
  "bytecode": "0x6101206040523480156200001257600080fd5b5060405162005080380380620050808339818101604052810190620000389190620003bb565b6040518060400160405280600481526020017f4b697465000000000000000000000000000000000000000000000000000000008152506040518060400160405280600481526020017f4b495445000000000000000000000000000000000000000000000000000000008152508160009081620000b59190620006a7565b508060019081620000c79190620006a7565b505050620000ea620000de6200020860201b60201c565b6200021060201b60201c565b8373ffffffffffffffffffffffffffffffffffffffff1660808173ffffffffffffffffffffffffffffffffffffffff16815250508273ffffffffffffffffffffffffffffffffffffffff1660a08173ffffffffffffffffffffffffffffffffffffffff16815250508173ffffffffffffffffffffffffffffffffffffffff1660c08173ffffffffffffffffffffffffffffffffffffffff16815250508073ffffffffffffffffffffffffffffffffffffffff1660e08173ffffffffffffffffffffffffffffffffffffffff1681525050620001ca620002d660201b60201c565b73ffffffffffffffffffffffffffffffffffffffff166101008173ffffffffffffffffffffffffffffffffffffffff168152505050505050620007c0565b600033905090565b6000600a60009054906101000a900473ffffffffffffffffffffffffffffffffffffffff16905081600a60006101000a81548173ffffffffffffffffffffffffffffffffffffffff021916908373ffffffffffffffffffffffffffffffffffffffff1602179055508173ffffffffffffffffffffffffffffffffffffffff168173ffffffffffffffffffffffffffffffffffffffff167f8be0079c531659141344cd1fd0a4f28419497f9722a3daafe3b4186f6b6457e060405160405180910390a35050565b600060e05173ffffffffffffffffffffffffffffffffffffffff16630261bf8b6040518163ffffffff1660e01b8152600401602060405180830381865afa15801562000326573d6000803e3d6000fd5b505050506040513d601f19601f820116820180604052508101906200034c91906200078e565b905090565b600080fd5b600073ffffffffffffffffffffffffffffffffffffffff82169050919050565b6000620003838262000356565b9050919050565b620003958162000376565b8114620003a157600080fd5b50565b600081519050620003b5816200038a565b92915050565b60008060008060808587031215620003d857620003d762000351565b5b6000620003e887828801620003a4565b9450506020620003fb87828801620003a4565b93505060406200040e87828801620003a4565b92505060606200042187828801620003a4565b91505092959194509250565b600081519050919050565b7f4e487b7100000000000000000000000000000000000000000000000000000000600052604160045260246000fd5b7f4e487b7100000000000000000000000000000000000000000000000000000000600052602260045260246000fd5b60006002820490506001821680620004af57607f821691505b602082108103620004c557620004c462000467565b5b50919050565b60008190508160005260206000209050919050565b60006020601f8301049050919050565b600082821b905092915050565b6000600883026200052f7fffffffffffffffffffffffffffffffffffffffffffffffffffffffffffffffff82620004f0565b6200053b8683620004f0565b95508019841693508086168417925050509392505050565b6000819050919050565b6000819050919050565b600062000588620005826200057c8462000553565b6200055d565b62000553565b9050919050565b6000819050919050565b620005a48362000567565b620005bc620005b3826200058f565b848454620004fd565b825550505050565b600090565b620005d3620005c4565b620005e081848462000599565b505050565b5b818110156200060857620005fc600082620005c9565b600181019050620005e6565b5050565b601f82111562000657576200062181620004cb565b6200062c84620004e0565b810160208510156200063c578190505b620006546200064b85620004e0565b830182620005e5565b50505b505050565b600082821c905092915050565b60006200067c600019846008026200065c565b1980831691505092915050565b600062000697838362000669565b9150826002028217905092915050565b620006b2826200042d565b67ffffffffffffffff811115620006ce57620006cd62000438565b5b620006da825462000496565b620006e78282856200060c565b600060209050601f8311600181146200071f57600084156200070a578287015190505b62000716858262000689565b86555062000786565b601f1984166200072f86620004cb565b60005b82811015620007595784890151825560018201915060208501945060208101905062000732565b8683101562000779578489015162000775601f89168262000669565b8355505b6001600288020188555050505b505050505050565b600060208284031215620007a757620007a662000351565b5b6000620007b784828501620003a4565b91505092915050565b60805160a05160c05160e051610100516148626200081e600039600081816109d50152610be201526000505060008181611128015261193201526000818161099801528181610ba601526111640152600061126a01526148626000f3fe6080604052600436106101a05760003560e01c80636352211e116100ec57806395d89b411161008a578063b88d4fde11610064578063b88d4fde146105d9578063c87b56dd14610602578063e985e9c51461063f578063f2fde38b1461067c576101a7565b806395d89b411461055a578063a22cb46514610585578063b16d2fd1146105ae576101a7565b806380d85911116100c657806380d85911146104af5780638300df49146104d85780638da5cb5b146105035780638e71decb1461052e576101a7565b80636352211e1461041e57806370a082311461045b578063715018a614610498576101a7565b806318160ddd116101595780632f745c59116101335780632f745c591461035057806342842e0e1461038d5780634f6ccce7146103b657806356189236146103f3576101a7565b806318160ddd146102bf57806322af00fa146102ea57806323b872dd14610327576101a7565b806301ffc9a7146101ac57806306fdde03146101e9578063081812fc14610214578063095ea7b31461025157806310fe7c481461027a578063155dd5ee14610296576101a7565b366101a757005b600080fd5b3480156101b857600080fd5b506101d360048036038101906101ce9190612fbe565b6106a5565b6040516101e09190613006565b60405180910390f35b3480156101f557600080fd5b506101fe6106b7565b60405161020b91906130b1565b60405180910390f35b34801561022057600080fd5b5061023b60048036038101906102369190613109565b610749565b6040516102489190613177565b60405180910390f35b34801561025d57600080fd5b50610278600480360381019061027391906131be565b61078f565b005b610294600480360381019061028f9190613109565b6108a6565b005b3480156102a257600080fd5b506102bd60048036038101906102b89190613109565b610ab2565b005b3480156102cb57600080fd5b506102d4610d14565b6040516102e1919061320d565b60405180910390f35b3480156102f657600080fd5b50610311600480360381019061030c9190613109565b610d21565b60405161031e919061320d565b60405180910390f35b34801561033357600080fd5b5061034e60048036038101906103499190613228565b610d39565b005b34801561035c57600080fd5b50610377600480360381019061037291906131be565b610d99565b604051610384919061320d565b60405180910390f35b34801561039957600080fd5b506103b460048036038101906103af9190613228565b610e3e565b005b3480156103c257600080fd5b506103dd60048036038101906103d89190613109565b610e5e565b6040516103ea919061320d565b60405180910390f35b3480156103ff57600080fd5b50610408610ecf565b604051610415919061320d565b60405180910390f35b34801561042a57600080fd5b5061044560048036038101906104409190613109565b610ee0565b6040516104529190613177565b60405180910390f35b34801561046757600080fd5b50610482600480360381019061047d919061327b565b610f66565b60405161048f919061320d565b60405180910390f35b3480156104a457600080fd5b506104ad61101d565b005b3480156104bb57600080fd5b506104d660048036038101906104d191906132a8565b611031565b005b3480156104e457600080fd5b506104ed611265565b6040516104fa9190613314565b60405180910390f35b34801561050f57600080fd5b50610518611304565b6040516105259190613177565b60405180910390f35b34801561053a57600080fd5b5061054361132e565b60405161055192919061332f565b60405180910390f35b34801561056657600080fd5b5061056f6114ec565b60405161057c91906130b1565b60405180910390f35b34801561059157600080fd5b506105ac60048036038101906105a79190613384565b61157e565b005b3480156105ba57600080fd5b506105c3611594565b6040516105d0919061320d565b60405180910390f35b3480156105e557600080fd5b5061060060048036038101906105fb91906134f9565b61159a565b005b34801561060e57600080fd5b5061062960048036038101906106249190613109565b6115fc565b60405161063691906130b1565b60405180910390f35b34801561064b57600080fd5b506106666004803603810190610661919061357c565b611664565b6040516106739190613006565b60405180910390f35b34801561068857600080fd5b506106a3600480360381019061069e919061327b565b6116f8565b005b60006106b08261177b565b9050919050565b6060600080546106c6906135eb565b80601f01602080910402602001604051908101604052809291908181526020018280546106f2906135eb565b801561073f5780601f106107145761010080835404028352916020019161073f565b820191906000526020600020905b81548152906001019060200180831161072257829003601f168201915b5050505050905090565b6000610754826117f5565b6004600083815260200190815260200160002060009054906101000a900473ffffffffffffffffffffffffffffffffffffffff169050919050565b600061079a82610ee0565b90508073ffffffffffffffffffffffffffffffffffffffff168373ffffffffffffffffffffffffffffffffffffffff160361080a576040517f08c379a00000000000000000000000000000000000000000000000000000000081526004016108019061368e565b60405180910390fd5b8073ffffffffffffffffffffffffffffffffffffffff16610829611840565b73ffffffffffffffffffffffffffffffffffffffff161480610858575061085781610852611840565b611664565b5b610897576040517f08c379a000000000000000000000000000000000000000000000000000000000815260040161088e90613720565b60405180910390fd5b6108a18383611848565b505050565b600d5442106108ea576040517f08c379a00000000000000000000000000000000000000000000000000000000081526004016108e19061378c565b60405180910390fd5b6000811161092d576040517f08c379a0000000000000000000000000000000000000000000000000000000008152600401610924906137f8565b60405180910390fd5b600f543414610971576040517f08c379a000000000000000000000000000000000000000000000000000000000815260040161096890613864565b60405180910390fd5b600061097c33611901565b90508160116000838152602001908152602001600020819055507f000000000000000000000000000000000000000000000000000000000000000073ffffffffffffffffffffffffffffffffffffffff1663474cf53d347f00000000000000000000000000000000000000000000000000000000000000003060006040518563ffffffff1660e01b8152600401610a15939291906138d7565b6000604051808303818588803b158015610a2e57600080fd5b505af1158015610a42573d6000803e3d6000fd5b50505050503373ffffffffffffffffffffffffffffffffffffffff163073ffffffffffffffffffffffffffffffffffffffff167f61e034d80d9bd9b8dcd5d07434c03615017de4a6a229fe18bb93863bd20341a88484604051610aa692919061332f565b60405180910390a35050565b600d54421080610ac35750600e5442115b610b02576040517f08c379a0000000000000000000000000000000000000000000000000000000008152600401610af990613980565b60405180910390fd5b3373ffffffffffffffffffffffffffffffffffffffff16610b2282610ee0565b73ffffffffffffffffffffffffffffffffffffffff1614610b78576040517f08c379a0000000000000000000000000000000000000000000000000000000008152600401610b6f90613a12565b60405180910390fd5b6000600f5490506010548203610ba4576000610b9261192d565b90508082610ba09190613a61565b9150505b7f000000000000000000000000000000000000000000000000000000000000000073ffffffffffffffffffffffffffffffffffffffff166380500d207f000000000000000000000000000000000000000000000000000000000000000083306040518463ffffffff1660e01b8152600401610c2193929190613a95565b600060405180830381600087803b158015610c3b57600080fd5b505af1158015610c4f573d6000803e3d6000fd5b50505050610c5c82611a19565b60003390508073ffffffffffffffffffffffffffffffffffffffff166108fc839081150290604051600060405180830381858888f19350505050158015610ca7573d6000803e3d6000fd5b503373ffffffffffffffffffffffffffffffffffffffff163073ffffffffffffffffffffffffffffffffffffffff167fc2b4a290c20fb28939d29f102514fbffd2b73c059ffba8b78250c94161d5fcc68486604051610d0792919061332f565b60405180910390a3505050565b6000600880549050905090565b60116020528060005260406000206000915090505481565b610d4a610d44611840565b82611b67565b610d89576040517f08c379a0000000000000000000000000000000000000000000000000000000008152600401610d8090613b3e565b60405180910390fd5b610d94838383611bfc565b505050565b6000610da483610f66565b8210610de5576040517f08c379a0000000000000000000000000000000000000000000000000000000008152600401610ddc90613bd0565b60405180910390fd5b600660008473ffffffffffffffffffffffffffffffffffffffff1673ffffffffffffffffffffffffffffffffffffffff168152602001908152602001600020600083815260200190815260200160002054905092915050565b610e598383836040518060200160405280600081525061159a565b505050565b6000610e68610d14565b8210610ea9576040517f08c379a0000000000000000000000000000000000000000000000000000000008152600401610ea090613c62565b60405180910390fd5b60088281548110610ebd57610ebc613c82565b5b90600052602060002001549050919050565b6000610edb600b611ef5565b905090565b600080610eec83611f03565b9050600073ffffffffffffffffffffffffffffffffffffffff168173ffffffffffffffffffffffffffffffffffffffff1603610f5d576040517f08c379a0000000000000000000000000000000000000000000000000000000008152600401610f5490613cfd565b60405180910390fd5b80915050919050565b60008073ffffffffffffffffffffffffffffffffffffffff168273ffffffffffffffffffffffffffffffffffffffff1603610fd6576040517f08c379a0000000000000000000000000000000000000000000000000000000008152600401610fcd90613d8f565b60405180910390fd5b600360008373ffffffffffffffffffffffffffffffffffffffff1673ffffffffffffffffffffffffffffffffffffffff168152602001908152602001600020549050919050565b611025611f40565b61102f6000611fbe565b565b6000600c60019054906101000a900460ff1615905080801561106557506001600c60009054906101000a900460ff1660ff16105b80611094575061107430612084565b15801561109357506001600c60009054906101000a900460ff1660ff16145b5b6110d3576040517f08c379a00000000000000000000000000000000000000000000000000000000081526004016110ca90613e21565b60405180910390fd5b6001600c60006101000a81548160ff021916908360ff1602179055508015611111576001600c60016101000a81548160ff0219169083151502179055505b83600d8190555082600e8190555081600f819055507f000000000000000000000000000000000000000000000000000000000000000073ffffffffffffffffffffffffffffffffffffffff1663095ea7b37f00000000000000000000000000000000000000000000000000000000000000007fffffffffffffffffffffffffffffffffffffffffffffffffffffffffffffffff6040518363ffffffff1660e01b81526004016111c1929190613e41565b6020604051808303816000875af11580156111e0573d6000803e3d6000fd5b505050506040513d601f19601f820116820180604052508101906112049190613e7f565b50801561125f576000600c60016101000a81548160ff0219169083151502179055507f7f26b83ff96e1f2b6a682f133852f6798a09c465da95921460cefb384740249860016040516112569190613ef4565b60405180910390a15b50505050565b6000807f000000000000000000000000000000000000000000000000000000000000000073ffffffffffffffffffffffffffffffffffffffff1663feaf968c6040518163ffffffff1660e01b815260040160a060405180830381865afa1580156112d3573d6000803e3d6000fd5b505050506040513d601f19601f820116820180604052508101906112f79190613f92565b5050509150508091505090565b6000600a60009054906101000a900473ffffffffffffffffffffffffffffffffffffffff16905090565b600080600e544211611375576040517f08c379a000000000000000000000000000000000000000000000000000000000815260040161136c90614059565b60405180910390fd5b600061137f610ecf565b9050600081116113c4576040517f08c379a00000000000000000000000000000000000000000000000000000000081526004016113bb906140c5565b60405180910390fd5b60006113e46305f5e1006113d6611265565b6120a790919063ffffffff16565b905060008060006114086011600080815260200190815260200160002054856120bd565b90506000600190505b85811161146e576000601160008381526020019081526020016000205490506000811461145a57600061144482886120bd565b905083811015611458578093508195508294505b505b508080611466906140e5565b915050611411565b50816010819055503373ffffffffffffffffffffffffffffffffffffffff163073ffffffffffffffffffffffffffffffffffffffff167fea11809aeba51e21f24e01ca3a7c1faf79466368a23f47aaaaddc4951a1ee61984866040516114d592919061332f565b60405180910390a381839650965050505050509091565b6060600180546114fb906135eb565b80601f0160208091040260200160405190810160405280929190818152602001828054611527906135eb565b80156115745780601f1061154957610100808354040283529160200191611574565b820191906000526020600020905b81548152906001019060200180831161155757829003601f168201915b5050505050905090565b611590611589611840565b83836120fa565b5050565b60105481565b6115ab6115a5611840565b83611b67565b6115ea576040517f08c379a00000000000000000000000000000000000000000000000000000000081526004016115e190613b3e565b60405180910390fd5b6115f684848484612266565b50505050565b6060611607826117f5565b60006116116122c2565b90506000815111611631576040518060200160405280600081525061165c565b8061163b846122d9565b60405160200161164c929190614169565b6040516020818303038152906040525b915050919050565b6000600560008473ffffffffffffffffffffffffffffffffffffffff1673ffffffffffffffffffffffffffffffffffffffff16815260200190815260200160002060008373ffffffffffffffffffffffffffffffffffffffff1673ffffffffffffffffffffffffffffffffffffffff16815260200190815260200160002060009054906101000a900460ff16905092915050565b611700611f40565b600073ffffffffffffffffffffffffffffffffffffffff168173ffffffffffffffffffffffffffffffffffffffff160361176f576040517f08c379a0000000000000000000000000000000000000000000000000000000008152600401611766906141ff565b60405180910390fd5b61177881611fbe565b50565b60007f780e9d63000000000000000000000000000000000000000000000000000000007bffffffffffffffffffffffffffffffffffffffffffffffffffffffff1916827bffffffffffffffffffffffffffffffffffffffffffffffffffffffff191614806117ee57506117ed826123a7565b5b9050919050565b6117fe81612489565b61183d576040517f08c379a000000000000000000000000000000000000000000000000000000000815260040161183490613cfd565b60405180910390fd5b50565b600033905090565b816004600083815260200190815260200160002060006101000a81548173ffffffffffffffffffffffffffffffffffffffff021916908373ffffffffffffffffffffffffffffffffffffffff160217905550808273ffffffffffffffffffffffffffffffffffffffff166118bb83610ee0565b73ffffffffffffffffffffffffffffffffffffffff167f8c5be1e5ebec7d5bd14f71427d1e84f3dd0314c0f7b2291e5b200ac8c7c3b92560405160405180910390a45050565b60008061190e600b611ef5565b905061191a600b6124ca565b61192483826124e0565b80915050919050565b6000807f000000000000000000000000000000000000000000000000000000000000000073ffffffffffffffffffffffffffffffffffffffff166370a08231306040518263ffffffff1660e01b81526004016119899190613177565b602060405180830381865afa1580156119a6573d6000803e3d6000fd5b505050506040513d601f19601f820116820180604052508101906119ca919061421f565b905060006119d6610d14565b90506000600f54826119e8919061424c565b9050808310156119fe5760009350505050611a16565b60008184611a0c919061428e565b9050809450505050505b90565b6000611a2482610ee0565b9050611a348160008460016124fe565b611a3d82610ee0565b90506004600083815260200190815260200160002060006101000a81549073ffffffffffffffffffffffffffffffffffffffff02191690556001600360008373ffffffffffffffffffffffffffffffffffffffff1673ffffffffffffffffffffffffffffffffffffffff168152602001908152602001600020600082825403925050819055506002600083815260200190815260200160002060006101000a81549073ffffffffffffffffffffffffffffffffffffffff021916905581600073ffffffffffffffffffffffffffffffffffffffff168273ffffffffffffffffffffffffffffffffffffffff167fddf252ad1be2c89b69c2b068fc378daa952ba7f163c4a11628f55a4df523b3ef60405160405180910390a4611b63816000846001612510565b5050565b600080611b7383610ee0565b90508073ffffffffffffffffffffffffffffffffffffffff168473ffffffffffffffffffffffffffffffffffffffff161480611bb55750611bb48185611664565b5b80611bf357508373ffffffffffffffffffffffffffffffffffffffff16611bdb84610749565b73ffffffffffffffffffffffffffffffffffffffff16145b91505092915050565b8273ffffffffffffffffffffffffffffffffffffffff16611c1c82610ee0565b73ffffffffffffffffffffffffffffffffffffffff1614611c72576040517f08c379a0000000000000000000000000000000000000000000000000000000008152600401611c6990614334565b60405180910390fd5b600073ffffffffffffffffffffffffffffffffffffffff168273ffffffffffffffffffffffffffffffffffffffff1603611ce1576040517f08c379a0000000000000000000000000000000000000000000000000000000008152600401611cd8906143c6565b60405180910390fd5b611cee83838360016124fe565b8273ffffffffffffffffffffffffffffffffffffffff16611d0e82610ee0565b73ffffffffffffffffffffffffffffffffffffffff1614611d64576040517f08c379a0000000000000000000000000000000000000000000000000000000008152600401611d5b90614334565b60405180910390fd5b6004600082815260200190815260200160002060006101000a81549073ffffffffffffffffffffffffffffffffffffffff02191690556001600360008573ffffffffffffffffffffffffffffffffffffffff1673ffffffffffffffffffffffffffffffffffffffff168152602001908152602001600020600082825403925050819055506001600360008473ffffffffffffffffffffffffffffffffffffffff1673ffffffffffffffffffffffffffffffffffffffff16815260200190815260200160002060008282540192505081905550816002600083815260200190815260200160002060006101000a81548173ffffffffffffffffffffffffffffffffffffffff021916908373ffffffffffffffffffffffffffffffffffffffff160217905550808273ffffffffffffffffffffffffffffffffffffffff168473ffffffffffffffffffffffffffffffffffffffff167fddf252ad1be2c89b69c2b068fc378daa952ba7f163c4a11628f55a4df523b3ef60405160405180910390a4611ef08383836001612510565b505050565b600081600001549050919050565b60006002600083815260200190815260200160002060009054906101000a900473ffffffffffffffffffffffffffffffffffffffff169050919050565b611f48611840565b73ffffffffffffffffffffffffffffffffffffffff16611f66611304565b73ffffffffffffffffffffffffffffffffffffffff1614611fbc576040517f08c379a0000000000000000000000000000000000000000000000000000000008152600401611fb390614432565b60405180910390fd5b565b6000600a60009054906101000a900473ffffffffffffffffffffffffffffffffffffffff16905081600a60006101000a81548173ffffffffffffffffffffffffffffffffffffffff021916908373ffffffffffffffffffffffffffffffffffffffff1602179055508173ffffffffffffffffffffffffffffffffffffffff168173ffffffffffffffffffffffffffffffffffffffff167f8be0079c531659141344cd1fd0a4f28419497f9722a3daafe3b4186f6b6457e060405160405180910390a35050565b6000808273ffffffffffffffffffffffffffffffffffffffff163b119050919050565b600081836120b59190614481565b905092915050565b60008183116120de576120d9838361251690919063ffffffff16565b6120f2565b6120f1828461251690919063ffffffff16565b5b905092915050565b8173ffffffffffffffffffffffffffffffffffffffff168373ffffffffffffffffffffffffffffffffffffffff1603612168576040517f08c379a000000000000000000000000000000000000000000000000000000000815260040161215f906144fe565b60405180910390fd5b80600560008573ffffffffffffffffffffffffffffffffffffffff1673ffffffffffffffffffffffffffffffffffffffff16815260200190815260200160002060008473ffffffffffffffffffffffffffffffffffffffff1673ffffffffffffffffffffffffffffffffffffffff16815260200190815260200160002060006101000a81548160ff0219169083151502179055508173ffffffffffffffffffffffffffffffffffffffff168373ffffffffffffffffffffffffffffffffffffffff167f17307eab39ab6107e8899845ad3d59bd9653f200f220920489ca2b5937696c31836040516122599190613006565b60405180910390a3505050565b612271848484611bfc565b61227d8484848461252c565b6122bc576040517f08c379a00000000000000000000000000000000000000000000000000000000081526004016122b390614590565b60405180910390fd5b50505050565b606060405180602001604052806000815250905090565b6060600060016122e8846126b3565b01905060008167ffffffffffffffff811115612307576123066133ce565b5b6040519080825280601f01601f1916602001820160405280156123395781602001600182028036833780820191505090505b509050600082602001820190505b60011561239c578080600190039150507f3031323334353637383961626364656600000000000000000000000000000000600a86061a8153600a85816123905761238f614452565b5b04945060008503612347575b819350505050919050565b60007f80ac58cd000000000000000000000000000000000000000000000000000000007bffffffffffffffffffffffffffffffffffffffffffffffffffffffff1916827bffffffffffffffffffffffffffffffffffffffffffffffffffffffff1916148061247257507f5b5e139f000000000000000000000000000000000000000000000000000000007bffffffffffffffffffffffffffffffffffffffffffffffffffffffff1916827bffffffffffffffffffffffffffffffffffffffffffffffffffffffff1916145b80612482575061248182612806565b5b9050919050565b60008073ffffffffffffffffffffffffffffffffffffffff166124ab83611f03565b73ffffffffffffffffffffffffffffffffffffffff1614159050919050565b6001816000016000828254019250508190555050565b6124fa828260405180602001604052806000815250612870565b5050565b61250a848484846128cb565b50505050565b50505050565b60008183612524919061428e565b905092915050565b600061254d8473ffffffffffffffffffffffffffffffffffffffff16612084565b156126a6578373ffffffffffffffffffffffffffffffffffffffff1663150b7a02612576611840565b8786866040518563ffffffff1660e01b81526004016125989493929190614605565b6020604051808303816000875af19250505080156125d457506040513d601f19601f820116820180604052508101906125d19190614666565b60015b612656573d8060008114612604576040519150601f19603f3d011682016040523d82523d6000602084013e612609565b606091505b50600081510361264e576040517f08c379a000000000000000000000000000000000000000000000000000000000815260040161264590614590565b60405180910390fd5b805181602001fd5b63150b7a0260e01b7bffffffffffffffffffffffffffffffffffffffffffffffffffffffff1916817bffffffffffffffffffffffffffffffffffffffffffffffffffffffff1916149150506126ab565b600190505b949350505050565b600080600090507a184f03e93ff9f4daa797ed6e38ed64bf6a1f0100000000000000008310612711577a184f03e93ff9f4daa797ed6e38ed64bf6a1f010000000000000000838161270757612706614452565b5b0492506040810190505b6d04ee2d6d415b85acef8100000000831061274e576d04ee2d6d415b85acef8100000000838161274457612743614452565b5b0492506020810190505b662386f26fc10000831061277d57662386f26fc10000838161277357612772614452565b5b0492506010810190505b6305f5e10083106127a6576305f5e100838161279c5761279b614452565b5b0492506008810190505b61271083106127cb5761271083816127c1576127c0614452565b5b0492506004810190505b606483106127ee57606483816127e4576127e3614452565b5b0492506002810190505b600a83106127fd576001810190505b80915050919050565b60007f01ffc9a7000000000000000000000000000000000000000000000000000000007bffffffffffffffffffffffffffffffffffffffffffffffffffffffff1916827bffffffffffffffffffffffffffffffffffffffffffffffffffffffff1916149050919050565b61287a8383612a29565b612887600084848461252c565b6128c6576040517f08c379a00000000000000000000000000000000000000000000000000000000081526004016128bd90614590565b60405180910390fd5b505050565b6128d784848484612c46565b600181111561291b576040517f08c379a000000000000000000000000000000000000000000000000000000000815260040161291290614705565b60405180910390fd5b6000829050600073ffffffffffffffffffffffffffffffffffffffff168573ffffffffffffffffffffffffffffffffffffffff16036129625761295d81612c4c565b6129a1565b8373ffffffffffffffffffffffffffffffffffffffff168573ffffffffffffffffffffffffffffffffffffffff16146129a05761299f8582612c95565b5b5b600073ffffffffffffffffffffffffffffffffffffffff168473ffffffffffffffffffffffffffffffffffffffff16036129e3576129de81612e02565b612a22565b8473ffffffffffffffffffffffffffffffffffffffff168473ffffffffffffffffffffffffffffffffffffffff1614612a2157612a208482612ed3565b5b5b5050505050565b600073ffffffffffffffffffffffffffffffffffffffff168273ffffffffffffffffffffffffffffffffffffffff1603612a98576040517f08c379a0000000000000000000000000000000000000000000000000000000008152600401612a8f90614771565b60405180910390fd5b612aa181612489565b15612ae1576040517f08c379a0000000000000000000000000000000000000000000000000000000008152600401612ad8906147dd565b60405180910390fd5b612aef6000838360016124fe565b612af881612489565b15612b38576040517f08c379a0000000000000000000000000000000000000000000000000000000008152600401612b2f906147dd565b60405180910390fd5b6001600360008473ffffffffffffffffffffffffffffffffffffffff1673ffffffffffffffffffffffffffffffffffffffff16815260200190815260200160002060008282540192505081905550816002600083815260200190815260200160002060006101000a81548173ffffffffffffffffffffffffffffffffffffffff021916908373ffffffffffffffffffffffffffffffffffffffff160217905550808273ffffffffffffffffffffffffffffffffffffffff16600073ffffffffffffffffffffffffffffffffffffffff167fddf252ad1be2c89b69c2b068fc378daa952ba7f163c4a11628f55a4df523b3ef60405160405180910390a4612c42600083836001612510565b5050565b50505050565b6008805490506009600083815260200190815260200160002081905550600881908060018154018082558091505060019003906000526020600020016000909190919091505550565b60006001612ca284610f66565b612cac919061428e565b9050600060076000848152602001908152602001600020549050818114612d91576000600660008673ffffffffffffffffffffffffffffffffffffffff1673ffffffffffffffffffffffffffffffffffffffff168152602001908152602001600020600084815260200190815260200160002054905080600660008773ffffffffffffffffffffffffffffffffffffffff1673ffffffffffffffffffffffffffffffffffffffff168152602001908152602001600020600084815260200190815260200160002081905550816007600083815260200190815260200160002081905550505b6007600084815260200190815260200160002060009055600660008573ffffffffffffffffffffffffffffffffffffffff1673ffffffffffffffffffffffffffffffffffffffff16815260200190815260200160002060008381526020019081526020016000206000905550505050565b60006001600880549050612e16919061428e565b9050600060096000848152602001908152602001600020549050600060088381548110612e4657612e45613c82565b5b906000526020600020015490508060088381548110612e6857612e67613c82565b5b906000526020600020018190555081600960008381526020019081526020016000208190555060096000858152602001908152602001600020600090556008805480612eb757612eb66147fd565b5b6001900381819060005260206000200160009055905550505050565b6000612ede83610f66565b905081600660008573ffffffffffffffffffffffffffffffffffffffff1673ffffffffffffffffffffffffffffffffffffffff168152602001908152602001600020600083815260200190815260200160002081905550806007600084815260200190815260200160002081905550505050565b6000604051905090565b600080fd5b600080fd5b60007fffffffff0000000000000000000000000000000000000000000000000000000082169050919050565b612f9b81612f66565b8114612fa657600080fd5b50565b600081359050612fb881612f92565b92915050565b600060208284031215612fd457612fd3612f5c565b5b6000612fe284828501612fa9565b91505092915050565b60008115159050919050565b61300081612feb565b82525050565b600060208201905061301b6000830184612ff7565b92915050565b600081519050919050565b600082825260208201905092915050565b60005b8381101561305b578082015181840152602081019050613040565b60008484015250505050565b6000601f19601f8301169050919050565b600061308382613021565b61308d818561302c565b935061309d81856020860161303d565b6130a681613067565b840191505092915050565b600060208201905081810360008301526130cb8184613078565b905092915050565b6000819050919050565b6130e6816130d3565b81146130f157600080fd5b50565b600081359050613103816130dd565b92915050565b60006020828403121561311f5761311e612f5c565b5b600061312d848285016130f4565b91505092915050565b600073ffffffffffffffffffffffffffffffffffffffff82169050919050565b600061316182613136565b9050919050565b61317181613156565b82525050565b600060208201905061318c6000830184613168565b92915050565b61319b81613156565b81146131a657600080fd5b50565b6000813590506131b881613192565b92915050565b600080604083850312156131d5576131d4612f5c565b5b60006131e3858286016131a9565b92505060206131f4858286016130f4565b9150509250929050565b613207816130d3565b82525050565b600060208201905061322260008301846131fe565b92915050565b60008060006060848603121561324157613240612f5c565b5b600061324f868287016131a9565b9350506020613260868287016131a9565b9250506040613271868287016130f4565b9150509250925092565b60006020828403121561329157613290612f5c565b5b600061329f848285016131a9565b91505092915050565b6000806000606084860312156132c1576132c0612f5c565b5b60006132cf868287016130f4565b93505060206132e0868287016130f4565b92505060406132f1868287016130f4565b9150509250925092565b6000819050919050565b61330e816132fb565b82525050565b60006020820190506133296000830184613305565b92915050565b600060408201905061334460008301856131fe565b61335160208301846131fe565b9392505050565b61336181612feb565b811461336c57600080fd5b50565b60008135905061337e81613358565b92915050565b6000806040838503121561339b5761339a612f5c565b5b60006133a9858286016131a9565b92505060206133ba8582860161336f565b9150509250929050565b600080fd5b600080fd5b7f4e487b7100000000000000000000000000000000000000000000000000000000600052604160045260246000fd5b61340682613067565b810181811067ffffffffffffffff82111715613425576134246133ce565b5b80604052505050565b6000613438612f52565b905061344482826133fd565b919050565b600067ffffffffffffffff821115613464576134636133ce565b5b61346d82613067565b9050602081019050919050565b82818337600083830152505050565b600061349c61349784613449565b61342e565b9050828152602081018484840111156134b8576134b76133c9565b5b6134c384828561347a565b509392505050565b600082601f8301126134e0576134df6133c4565b5b81356134f0848260208601613489565b91505092915050565b6000806000806080858703121561351357613512612f5c565b5b6000613521878288016131a9565b9450506020613532878288016131a9565b9350506040613543878288016130f4565b925050606085013567ffffffffffffffff81111561356457613563612f61565b5b613570878288016134cb565b91505092959194509250565b6000806040838503121561359357613592612f5c565b5b60006135a1858286016131a9565b92505060206135b2858286016131a9565b9150509250929050565b7f4e487b7100000000000000000000000000000000000000000000000000000000600052602260045260246000fd5b6000600282049050600182168061360357607f821691505b602082108103613616576136156135bc565b5b50919050565b7f4552433732313a20617070726f76616c20746f2063757272656e74206f776e6560008201527f7200000000000000000000000000000000000000000000000000000000000000602082015250565b600061367860218361302c565b91506136838261361c565b604082019050919050565b600060208201905081810360008301526136a78161366b565b9050919050565b7f4552433732313a20617070726f76652063616c6c6572206973206e6f7420746f60008201527f6b656e206f776e6572206f7220617070726f76656420666f7220616c6c000000602082015250565b600061370a603d8361302c565b9150613715826136ae565b604082019050919050565b60006020820190508181036000830152613739816136fd565b9050919050565b7f626574207374616b696e6720706572696f642068617320656e64656400000000600082015250565b6000613776601c8361302c565b915061378182613740565b602082019050919050565b600060208201905081810360008301526137a581613769565b9050919050565b7f47756573732070726963652063616e6e6f742062652030000000000000000000600082015250565b60006137e260178361302c565b91506137ed826137ac565b602082019050919050565b60006020820190508181036000830152613811816137d5565b9050919050565b7f696e76616c6964207374616b6520616d6f756e74000000000000000000000000600082015250565b600061384e60148361302c565b915061385982613818565b602082019050919050565b6000602082019050818103600083015261387d81613841565b9050919050565b6000819050919050565b600061ffff82169050919050565b6000819050919050565b60006138c16138bc6138b784613884565b61389c565b61388e565b9050919050565b6138d1816138a6565b82525050565b60006060820190506138ec6000830186613168565b6138f96020830185613168565b61390660408301846138c8565b949350505050565b7f63616e6e6f742077697468647261772066756e647320696e206c6f636b696e2060008201527f707265696f640000000000000000000000000000000000000000000000000000602082015250565b600061396a60268361302c565b91506139758261390e565b604082019050919050565b600060208201905081810360008301526139998161395d565b9050919050565b7f74686973207469636b657420646f6573206e6f742062656c6f6e6720746f206360008201527f616c6c6572000000000000000000000000000000000000000000000000000000602082015250565b60006139fc60258361302c565b9150613a07826139a0565b604082019050919050565b60006020820190508181036000830152613a2b816139ef565b9050919050565b7f4e487b7100000000000000000000000000000000000000000000000000000000600052601160045260246000fd5b6000613a6c826130d3565b9150613a77836130d3565b9250828201905080821115613a8f57613a8e613a32565b5b92915050565b6000606082019050613aaa6000830186613168565b613ab760208301856131fe565b613ac46040830184613168565b949350505050565b7f4552433732313a2063616c6c6572206973206e6f7420746f6b656e206f776e6560008201527f72206f7220617070726f76656400000000000000000000000000000000000000602082015250565b6000613b28602d8361302c565b9150613b3382613acc565b604082019050919050565b60006020820190508181036000830152613b5781613b1b565b9050919050565b7f455243373231456e756d657261626c653a206f776e657220696e646578206f7560008201527f74206f6620626f756e6473000000000000000000000000000000000000000000602082015250565b6000613bba602b8361302c565b9150613bc582613b5e565b604082019050919050565b60006020820190508181036000830152613be981613bad565b9050919050565b7f455243373231456e756d657261626c653a20676c6f62616c20696e646578206f60008201527f7574206f6620626f756e64730000000000000000000000000000000000000000602082015250565b6000613c4c602c8361302c565b9150613c5782613bf0565b604082019050919050565b60006020820190508181036000830152613c7b81613c3f565b9050919050565b7f4e487b7100000000000000000000000000000000000000000000000000000000600052603260045260246000fd5b7f4552433732313a20696e76616c696420746f6b656e2049440000000000000000600082015250565b6000613ce760188361302c565b9150613cf282613cb1565b602082019050919050565b60006020820190508181036000830152613d1681613cda565b9050919050565b7f4552433732313a2061646472657373207a65726f206973206e6f74206120766160008201527f6c6964206f776e65720000000000000000000000000000000000000000000000602082015250565b6000613d7960298361302c565b9150613d8482613d1d565b604082019050919050565b60006020820190508181036000830152613da881613d6c565b9050919050565b7f496e697469616c697a61626c653a20636f6e747261637420697320616c72656160008201527f647920696e697469616c697a6564000000000000000000000000000000000000602082015250565b6000613e0b602e8361302c565b9150613e1682613daf565b604082019050919050565b60006020820190508181036000830152613e3a81613dfe565b9050919050565b6000604082019050613e566000830185613168565b613e6360208301846131fe565b9392505050565b600081519050613e7981613358565b92915050565b600060208284031215613e9557613e94612f5c565b5b6000613ea384828501613e6a565b91505092915050565b6000819050919050565b600060ff82169050919050565b6000613ede613ed9613ed484613eac565b61389c565b613eb6565b9050919050565b613eee81613ec3565b82525050565b6000602082019050613f096000830184613ee5565b92915050565b600069ffffffffffffffffffff82169050919050565b613f2e81613f0f565b8114613f3957600080fd5b50565b600081519050613f4b81613f25565b92915050565b613f5a816132fb565b8114613f6557600080fd5b50565b600081519050613f7781613f51565b92915050565b600081519050613f8c816130dd565b92915050565b600080600080600060a08688031215613fae57613fad612f5c565b5b6000613fbc88828901613f3c565b9550506020613fcd88828901613f68565b9450506040613fde88828901613f7d565b9350506060613fef88828901613f7d565b925050608061400088828901613f3c565b9150509295509295909350565b7f62657420686173206e6f7420656e646564000000000000000000000000000000600082015250565b600061404360118361302c565b915061404e8261400d565b602082019050919050565b6000602082019050818103600083015261407281614036565b9050919050565b7f546865726520617265206e6f2075736572730000000000000000000000000000600082015250565b60006140af60128361302c565b91506140ba82614079565b602082019050919050565b600060208201905081810360008301526140de816140a2565b9050919050565b60006140f0826130d3565b91507fffffffffffffffffffffffffffffffffffffffffffffffffffffffffffffffff820361412257614121613a32565b5b600182019050919050565b600081905092915050565b600061414382613021565b61414d818561412d565b935061415d81856020860161303d565b80840191505092915050565b60006141758285614138565b91506141818284614138565b91508190509392505050565b7f4f776e61626c653a206e6577206f776e657220697320746865207a65726f206160008201527f6464726573730000000000000000000000000000000000000000000000000000602082015250565b60006141e960268361302c565b91506141f48261418d565b604082019050919050565b60006020820190508181036000830152614218816141dc565b9050919050565b60006020828403121561423557614234612f5c565b5b600061424384828501613f7d565b91505092915050565b6000614257826130d3565b9150614262836130d3565b9250828202614270816130d3565b9150828204841483151761428757614286613a32565b5b5092915050565b6000614299826130d3565b91506142a4836130d3565b92508282039050818111156142bc576142bb613a32565b5b92915050565b7f4552433732313a207472616e736665722066726f6d20696e636f72726563742060008201527f6f776e6572000000000000000000000000000000000000000000000000000000602082015250565b600061431e60258361302c565b9150614329826142c2565b604082019050919050565b6000602082019050818103600083015261434d81614311565b9050919050565b7f4552433732313a207472616e7366657220746f20746865207a65726f2061646460008201527f7265737300000000000000000000000000000000000000000000000000000000602082015250565b60006143b060248361302c565b91506143bb82614354565b604082019050919050565b600060208201905081810360008301526143df816143a3565b9050919050565b7f4f776e61626c653a2063616c6c6572206973206e6f7420746865206f776e6572600082015250565b600061441c60208361302c565b9150614427826143e6565b602082019050919050565b6000602082019050818103600083015261444b8161440f565b9050919050565b7f4e487b7100000000000000000000000000000000000000000000000000000000600052601260045260246000fd5b600061448c826130d3565b9150614497836130d3565b9250826144a7576144a6614452565b5b828204905092915050565b7f4552433732313a20617070726f766520746f2063616c6c657200000000000000600082015250565b60006144e860198361302c565b91506144f3826144b2565b602082019050919050565b60006020820190508181036000830152614517816144db565b9050919050565b7f4552433732313a207472616e7366657220746f206e6f6e20455243373231526560008201527f63656976657220696d706c656d656e7465720000000000000000000000000000602082015250565b600061457a60328361302c565b91506145858261451e565b604082019050919050565b600060208201905081810360008301526145a98161456d565b9050919050565b600081519050919050565b600082825260208201905092915050565b60006145d7826145b0565b6145e181856145bb565b93506145f181856020860161303d565b6145fa81613067565b840191505092915050565b600060808201905061461a6000830187613168565b6146276020830186613168565b61463460408301856131fe565b818103606083015261464681846145cc565b905095945050505050565b60008151905061466081612f92565b92915050565b60006020828403121561467c5761467b612f5c565b5b600061468a84828501614651565b91505092915050565b7f455243373231456e756d657261626c653a20636f6e736563757469766520747260008201527f616e7366657273206e6f7420737570706f727465640000000000000000000000602082015250565b60006146ef60358361302c565b91506146fa82614693565b604082019050919050565b6000602082019050818103600083015261471e816146e2565b9050919050565b7f4552433732313a206d696e7420746f20746865207a65726f2061646472657373600082015250565b600061475b60208361302c565b915061476682614725565b602082019050919050565b6000602082019050818103600083015261478a8161474e565b9050919050565b7f4552433732313a20746f6b656e20616c7265616479206d696e74656400000000600082015250565b60006147c7601c8361302c565b91506147d282614791565b602082019050919050565b600060208201905081810360008301526147f6816147ba565b9050919050565b7f4e487b7100000000000000000000000000000000000000000000000000000000600052603160045260246000fdfea26469706673582212209f1a96bb5a8129854dda873b24f0b235d0d626fda0391f74cd04e86daf28b0b464736f6c63430008120033",
  "linkReferences": {},
  "deployedLinkReferences": {}
}